:020000040800F2
:10000000082800209D010008DF2700080B230008B6
:10001000DD270008DD080008D72E000800000000DA
:10002000000000000000000000000000632A00083B
:10003000A909000800000000612A0008312B00080F
:10004000B7010008B7010008B7010008B7010008B0
:10005000B7010008B7010008B7010008B7010008A0
:10006000B7010008B7010008B7010008B701000890
:10007000B7010008B7010008B7010008B701000880
:10008000B7010008B7010008A9070008B701000878
:10009000B7010008B7010008B7010008B701000860
:1000A000B7010008D52B0008B7010008B701000808
:1000B000B7010008B7010008B7010008B701000840
:1000C000B7010008B7010008B7010008B701000830
:1000D000B7010008B7010008B7010008B701000820
:1000E000B7010008B7010008B7010008B701000810
:1000F000E12B0008B7010008B7010008B7010008AC
:10010000B7010008B7010008B7010008B7010008EF
:10011000B7010008B7010008B7010008B7010008DF
:10012000F9080008B7010008B7010008B701000886
:10013000B7010008B7010008B7010008B7010008BF
:10014000B7010008B7010008B7010008B7010008AF
:10015000B7010008B7010008B7010008B70100089F
:10016000B7010008B7010008B7010008B70100088F
:10017000B7010008B7010008B7010008000000003F
:10018000B7010008B7010008DFF80CD000F0B2FAA0
:1001900000480047AD310008082800200648804785
:1001A00006480047FEE7FEE7FEE7FEE7FEE7FEE75C
:1001B000FEE7FEE7FEE7FEE7B92B0008890100082D
:1001C000DFED460A60EE200AF5EEC00AF1EE10FA05
:1001D00038BFF1EE600ABDEEE01ADFF808C1F7EEB5
:1001E000004AB0EE085AB8EEC11AB5EEC00A70EE79
:1001F000C10A9FED3B1A20EE811AFCEEC10A10EEF7
:10020000902AC2F3080200EE902A02F180030CEB60
:100210008202F8EE600AD2ED001AC3F308030CEB79
:100220008303F1EE612A71EE600AD2ED011A93EDBB
:10023000001A93ED012AF1EE613A74EEE01A32EE03
:10024000413A61EE811A40EE821A32EEA32ADFEDC6
:10025000261A22EE214AB0EE002A42EE223A02EE9F
:10026000434A23EE053A03EEE13A00EE843A34EED7
:10027000E04A20EE833A02EEA13A00EE831A81EDC5
:10028000001A92ED001AD2ED013AD3ED002A24EEC5
:10029000014A93ED013A00EEA34A32EE834A73EE2F
:1002A000C13A02EE223A24EE214A02EE634A63EE9C
:1002B000853A43EE613A40EE843A20EEA32A02EEFC
:1002C000A12A00EE821AF1EE10FA80ED001A3CBF6E
:1002D000B1EE410A80ED000A70470000610B363B29
:1002E000000000444C4E0008DB0F493C2DE9F05F54
:1002F0000546002092469B46884606468146402495
:100300001BE0284641464746224600F04FF9534637
:100310005A46C01A914110D311461846224600F0A1
:1003200036F92D1A67EB01084F46224601200021BD
:1003300000F02DF917EB00094E41201EA4F1010435
:10034000DFDC484631462A464346BDE8F09FD2B23C
:1003500001E000F8012B491EFBD270470022F6E7AE
:1003600010B513460A4604461946FFF7F0FF20462B
:1003700010BD2DE9FE4F81EA030404F0004421F092
:10038000004100944FF0000B23F0004350EA0104B9
:100390005ED052EA03045BD0C3F30A54C1F30A559A
:1003A0002C44A4F2F3340194A0FB0254C1F31301D2
:1003B00041F48011C3F3130343F4801301FB02449F
:1003C00000FB034E840A970A44EA815447EA8357A4
:1003D000A4FB076802958D0A05FB07854FEA932C5D
:1003E00004FB0C542705029D4FEA065847EA1637CE
:1003F000B5EB08056EEB070C870E920E47EA8117E6
:1004000042EA8312A7FB0201B6EB0B0164EB000486
:100410002B0D43EA0C335E1844EB1C50DA46514670
:10042000E7FB0201C5F313044FEA0B3343EA14530D
:100430004FEA0432019C43EA0603A4F10C0402943F
:10044000009CCDE900B400F007F903B0BDE8F08FDF
:1004500000200146F9E72DE9F04D81EA030404F09C
:10046000004B21F0004514464FF0000A23F00041F4
:1004700050EA050220D054EA01021DD0C5F30A5704
:100480000246C5F31303C1F31300C1F30A5640F447
:10049000801543F48013A7EB0608101BD64608F21C
:1004A000FD3873EB050002D308F1010801E0921852
:1004B0005B41B8F1000F03DA00200146BDE8F08D82
:1004C00000204FF48011064684460EE0171B73EBA4
:1004D000050705D3121B63EB050306434CEA010C29
:1004E00049084FEA300092185B4150EA0107EDD10C
:1004F00052EA030012D082EA040083EA05010843AD
:1005000005D0101BAB4106D20122002306E00022D9
:100510004FF0004302E06FF0010253101AEB0600A7
:100520004CEB085110EB0A0041EB0B01BDE8F04D1C
:1005300000F083B80EB5C10F80EAE0700844CA0726
:10054000002140F233438DE80E000A460B4600F0CE
:1005500083F803B000BD01F0004330B421F0004146
:1005600050EA010206D00A0DA2F56072C1F3130130
:10057000002A02DC30BC00207047440F44EAC1046A
:10058000C100E01830BC00EBC25000F01FB8202AB8
:1005900004DB203A00FA02F1002070479140C2F1DA
:1005A000200320FA03F3194390407047202A04DB0C
:1005B000203A21FA02F00021704721FA02F3D040DC
:1005C000C2F1200291400843194670470029A8BF94
:1005D0007047401C490008BF20F00100704710B46C
:1005E000B0FA80FC00FA0CF050EA010404BF10BC21
:1005F000704749B1CCF1200421FA04F411FA0CF14E
:1006000018BF012121430843A3EB0C01CB1D4FEA86
:1006100000614FEA102042BF002010BC704700EB81
:10062000C35010440029A4BF10BC7047401C4900AF
:1006300008BF20F0010010BC704710B5141E73F104
:10064000000408DA401C41F1000192185B411A4392
:1006500001D120F0010010BD2DE9F04D92469B46DE
:1006600011B1B1FA81F202E0B0FA80F22032904684
:10067000FFF78DFF04460F4640EA0A0041EA0B01EE
:1006800053465A46084313D0114653EA010019D085
:10069000C8F140025046FFF789FF05460E46504616
:1006A00059464246FFF773FF084305D0012004E096
:1006B00020463946BDE8F08D0020054346EAE07645
:1006C0002C4337430A986305E40AA0EB0800002294
:1006D000FD0A44EA47540A3002D500200146E9E702
:1006E000010510196941DDE9084500196941BDE8B6
:1006F000F04DA2E7064C074D06E0E06840F001032C
:1007000094E8070098471034AC42F6D3FFF740FD59
:10071000505600087056000810B50146806B026CF8
:1007200012F0500F05D0026CD20626D500F0E8F981
:1007300010BD016C41F40071016401688A6812F017
:10074000405F17D1027EAAB9CA6A12F4700F02D0B4
:100750008A6852050ED44A6822F020024A60016C71
:1007600021F480710164016CC90403D4016C41F06F
:100770000101016400F0C2F910BD806BC26CBDE8DC
:1007800010400846104710B5806B40210164416C51
:1007900041F00401416400F0B3F910BD10B5806B65
:1007A00000F0ADF910BD0000014800F0AAB900004A
:1007B00034000020464910B54A6822F440324A60AD
:1007C0004A6843681A434A6001684A6822F48072A2
:1007D0004A6001684A68036942EA03224A60016884
:1007E0004A6822F040724A6001684A6883681A4386
:1007F0004A6001688A6822F400628A6001688A6837
:10080000C3681A438A60816A6FF07062D1420168DE
:100810008A6822F070628A6001688A680CD0836AF4
:100820001A438A6001688A6822F040528A6001682F
:100830008A68C36A1A4301E022F040528A60016864
:100840008A6822F002028A6001688A68037E42EAAE
:1008500043028A6090F82010002901684A680FD08E
:1008600042F400624A6001684A6822F460424A60C9
:1008700001684A68174C436A04EB43331A4301E0AA
:1008800022F400624A600168CA6A22F47002CA62F5
:100890000168CA6A838B104C04EB03531A43CA6283
:1008A00001688A6822F400728A6001688A6890F898
:1008B000303042EA43228A6001688A6822F480620A
:1008C0008A6001688A68406942EA8020886010BDB9
:1008D0000023014000E0FFFF0000F0FFFEE710B53D
:1008E0000446102040EA141002F057F804F00F00FC
:1008F000BDE8104002F051B8014800F0DBBA00003A
:100900007C00002001681823CAB2103AB2FBF3F24F
:10091000054B6FF30901032A9B5CC36500D9091DD0
:100920008165084670470000B035000810B50146E3
:1009300000208B698A6A4FF0C07453B1B3F5005F31
:1009400015D072B1012A0CD0022A0AD0032A09D18B
:1009500004E01AB1012A06D0022A03D1C96AC901EA
:1009600000D5012010BDC96AA142FAD010BD002AED
:10097000F7D0012AF2D0022AF3D0032AF3D010BD17
:1009800030B50468256825F4802525600468636017
:100990008368402B036803D099600068C26030BD53
:1009A0009A600068C16030BD7047704770470000B2
:1009B00078B50024009490F83C20012A19D0012237
:1009C00080F83C200A6807230568092A13D9EE68D5
:1009D0000A3A02EB420293409E43EE600B788A682B
:1009E0000A3B03EB43039A400368DD682A43DA605D
:1009F00010E0022078BD2E6902EB420293409E4334
:100A00002E610B788A6803EB43039A4003681D69E3
:100A10002A431A614A681F23072A13D205686E6B9E
:100A2000521E02EB820293409E436E630B790A884A
:100A30005B1E92B203EB83039A4003685D6B2A430B
:100A40005A6327E005680D2A12D22E6BD21F02EBE3
:100A5000820293409E432E630B790A88DB1F92B279
:100A600003EB83039A4003681D6B2A431A6311E06A
:100A7000EE6A0D3A02EB820293409E43EE620B79DE
:100A80000A880D3B92B203EB83039A400368DD6A48
:100A90002A43DA62164B0568144A9D4206D10D6856
:100AA000122D03D1556845F48005556005689D42B7
:100AB00018D10B68102B01D0112B13D1536843F4BC
:100AC00000035360096810290CD10A490A4A0968D1
:100AD000B1FBF2F101EB8101490000E0491E0091F8
:100AE0000029FBD180F83C40002078BD0023014064
:100AF000002001400C00002040420F00704770476A
:100B0000704770B50446006801684268C1F340014F
:100B1000C2F3401251B34AB3216CC90603D4216C0D
:100B200041F400712164816811F0405F17D1217E8A
:100B3000A9B9C16A11F4700F02D0816849050ED4B9
:100B4000416821F020014160206C20F48070206415
:100B5000206CC00403D4206C40F0010020642046C7
:100B6000FFF7CCFF21686FF0120008602068016871
:100B70004268C1F38001C2F3C01289B382B3216C11
:100B8000C90603D4216C41F400512164816811F439
:100B9000401F1ED1816B11F4401F02D081684905AE
:100BA00017D44168490514D4816811F0405F10D111
:100BB000217E71B9416821F080014160206C20F4F0
:100BC00080502064206CC00503D4206C40F00100EC
:100BD00020642046FFF7EAFE21686FF00C000860F1
:100BE00020680168426811F0010FC2F380120ED034
:100BF0006AB10068C0070AD0206C40F480302064DD
:100C0000204600F046F821686FF001000860206877
:100C100001684268C1F34011C2F3806200290DD01F
:100C2000002A0BD0616C41F0020161646FF0200575
:100C300005602046FFF764FF2068056070BD70B551
:100C400004004FF0000503D0206C002610B107E02F
:100C5000012070BD204600F01DF8666484F83C60F9
:100C6000206CC00610D4206C20F4885040F00200A4
:100C700020642046FFF79EFD6664206C20F0020091
:100C800040F00100206400E0012584F83C60284623
:100C900070BD7047F0B587B0064614216846FFF76F
:100CA0005DFB3149306888425CD1304800250168DD
:100CB00041F48071016000682C4900F4807014399F
:100CC0000590086840F004000860086800F004001F
:100CD0000590086840F001000860086800F0010015
:100CE0000590086840F0020008600868022700F0DC
:100CF000020000970590032469461D48CDE901458F
:100D000000F05CFA5F208DE831006946194800F078
:100D100055FA009769461848CDE9014500F04EFAAA
:100D2000174C1648C4E900050015A560C4E9035036
:100D3000400060618000A0614011E0614FF44030EC
:100D4000C4E90805204600F085F908B1FFF72DFE3B
:100D5000B463002211461220A66300F07FFB12202C
:100D600000F06EFB07B0F0BD0020014044380240A7
:100D700000080240000002400004024010640240EB
:100D80007C000020F8B50E4600210446009190F842
:100D90003C00012807D0012084F83C0020688368CB
:100DA000DB0702D011E00220F8BD836843F00103A5
:100DB00083603748374B0068B0FBF3F000EB40002E
:100DC00000E0401E00900028FBD120688368DB070C
:100DD0005CD0236C40F20165AB4343F48073236421
:100DE0004068400505D5206C20F4005040F4805048
:100DF0002064206CC00404D5606C20F006006064A0
:100E000000E0616484F83C10A16B2448224DC86363
:100E1000A16B23480864A16B2248C86421686FF065
:100E2000220008602068416841F0806141602068CC
:100E3000816841F4807181602168134632464C31EB
:100E4000A06B00F071F968681749C006206806D0E9
:100E500088421BD1816811F0405F13D016E08842B0
:100E6000F8D0124A904203D1D1F80423D206F1D02F
:100E70000F4A90420AD1D1F8041301F01F01102942
:100E8000E8D303E0816841F0804181600020F8BD33
:100E90000C00002040420F00002301401907000809
:100EA0009D0700088707000800200140002101403D
:100EB000002201402DE9F84304464FF00009CDF827
:100EC000009063484FF41651A56D0068B0FBF1F730
:100ED0002E6894F85C10082000FA01F131420FD01E
:100EE00021680A6852070BD50A6822F004020A60DA
:100EF00094F85C108840A860606D40F00100606567
:100F000094F85C104FF0010808FA01F0304208D064
:100F100021684969090604D5A860606D40F00200A7
:100F2000606594F85C1004208840304208D0216845
:100F30000968890704D5A860606D40F00400606509
:100F400094F85C1010208840304218D0216809685D
:100F5000090714D5A86020680168490304D5006812
:100F6000000308D5A16C07E00168C90503D4016836
:100F700021F008010160216C09B12046884794F8EE
:100F80005C1020208840304231D021680968C906B1
:100F90002DD5A86094F8350005282068016806D092
:100FA000490347D5006800031DD4616C1CE021F0A3
:100FB000160101602068416921F080014161206CC7
:100FC00008B9A06C20B12068016821F00801016017
:100FD00094F85C103F208840A86084F8349084F82E
:100FE0003580216D1FE0E16B09B120468847606DB7
:100FF00000282BD0606DC00714D0052084F8350080
:101000002068016821F0010101600098401C0090F7
:10101000B84203D820680068C007F6D184F834903D
:1010200084F83580E16C002910D001B02046BDE87D
:10103000F04308470168C905D5D4016821F01001C3
:10104000016084F8349084F83580CCE7BDE8F883FB
:101050000C0000202DE9F041044600F091F906460D
:101060005CB1002584F83450022084F835002068F3
:10107000016821F0010101600DE00120BDE8F0816F
:1010800000F07EF9801B052805D92020606503202B
:1010900084F83500F2E720680068C007F0D12268C4
:1010A000116820480140D4E901031843D4E903360C
:1010B0003343184363691843A3691843E36918432A
:1010C000236A18430843616A042903D1D4E90B1346
:1010D00019430843106020684069666A20F00701E0
:1010E00030460E43012704280CD1A06A0643E06A6B
:1010F00040B12046FFF71AFC20B14020606584F81B
:101100003570BAE7206846612046FFF7FBFB94F88C
:101110005C203F2191408160656584F83570002036
:10112000ACE700003F8010F02DE9F0410446866DE9
:1011300090F83400002501280DD0012084F83400F7
:1011400094F835700020012F07D084F83400022570
:101150002846BDE8F0810220FBE7022784F83570BD
:1011600060652046FFF70CFC94F85C103F20884037
:10117000B0602068016841F016010160206C20B168
:101180002068016841F0080101602068016841F0B1
:1011900001010160DCE7000070B5044600F0F0F8E2
:1011A0000546601C02D004480078044400F0E8F8CA
:1011B000401BA042FAD370BD000000202DE9F84F7B
:1011C00000224FF0010803254FF00F0E0B6808FABC
:1011D00002F42340A3426ED14E68012E05D0022EA8
:1011E00003D0112E01D0122E12D186684FEA420C84
:1011F00005FA0CF7BE43CF6807FA0CF73743876050
:101200004668A6430C79C4F3001494403443446008
:10121000C668570005FA07FC8C6826EA0C06BC4035
:101220003443C4604C68022C01D0122C13D1D40872
:1012300000EB8404A346D4F8209054074FEAD46A04
:101240000EFA0AF629EA06090E6906FA0AF646EACD
:101250000906CBF8206006680C7926EA0C0604F033
:101260000304BC40344304604C68E40065D5364C4C
:10127000266846F480462660246822F0030604F4BB
:1012800080440094314C3444A446D4F8084896076E
:10129000370F0EFA07F6B4432D4EB04201D10026A7
:1012A00024E02C4EB04201D101261FE02A4EB0426C
:1012B00002D102261AE040E0284EB04201D10326B6
:1012C00014E0274EB04201D104260FE0254EB04273
:1012D00001D105260AE0244EB04201D1062605E0E0
:1012E000224EB04201D1072600E00826BE40264328
:1012F000CCF808681E4E34684F689C43FF0300D545
:101300001C4334601A4C241D26684F689E43BF035B
:1013100000D51E432660164E083634684F689C433D
:10132000FF0200D51C433460114E0C3634684F6800
:101330009C43BF0200D51C433460521C102AFFF4AA
:1013400045AFBDE8F88F000044380240003001404E
:10135000000002400004024000080240000C02406D
:10136000001002400014024000180240001C02401D
:10137000003C01400AB1816170470904FBE70000AD
:101380000148806870470000000000200248816822
:101390000278114481607047000000200B4810B5AE
:1013A000016841F400710160016841F480610160ED
:1013B000016841F480710160032000F06FF80020A3
:1013C00000F006F800F024F8002010BD003C0240B8
:1013D00070B50D4D04464FF47A712878B1FBF0F0EA
:1013E0000A490968B1FBF0F000F0E2FA48B9102CA4
:1013F00007D200222146501E00F030F800206C6019
:1014000070BD012070BD0000000000200C00002015
:101410000A4808B5016841F480410160006800F4A1
:10142000804000900548001F016841F08051016034
:10143000006800F08050009008BD00004438024071
:10144000002809DB00F01F020121914040098000C3
:1014500000F1E020C0F8001170470000F0B40E4B1E
:101460001B680C46C3F30223C3F10705042D00D902
:101470000425191D072901D2002300E0DB1E0126E7
:1014800006FA05F1491E214099409E40761E1640FD
:101490003143F0BC01F033BD0CED00E0064900F033
:1014A000070208684FF6FF03184040EA0220034A8B
:1014B00010430860704700000CED00E00000FA05E2
:1014C0002DE9F0470E46050065D0DFF81481D8F805
:1014D0000000F7B200F00F00B04207D288F80070A9
:1014E000D8F8000000F00F00B04254D128683D4CFD
:1014F000810712D5400703D5206840F4E0502060F2
:101500002878000703D5206840F4604020602068F8
:10151000A96820F0F000084320602878C0072DD08B
:10152000304968680839012812D0022813D00328EE
:1015300011D00968890700292DDA216821F00301FB
:1015400001432160FFF71CFF814641F2883A0EE01B
:1015500009688903EFE709688901ECE7FFF710FFE5
:10156000A0EB0901514502D90320BDE8F0872068AE
:10157000696800F00C00B0EB810FEFD1D8F80010D3
:10158000404601F00F01B14207D90770006800F032
:101590000F00B04201D00120E7E72878400705D5C9
:1015A0002068E96820F4E0500843206028780007AC
:1015B00006D52068296920F4604040EAC100206017
:1015C00000F018F82168084AC1F30311515CC840C3
:1015D0000649086006480068FFF7FAFE0020C4E7E5
:1015E000003C024008380240B83500080C000020DA
:1015F00004000020154810B5006810F00C021448D3
:1016000013D04110042A0FD0082A0ED10F4C241FEA
:101610002268236802F03F025B0207D52068C0F30E
:101620008810A0FB010106E0084610BD2168C1F347
:101630008811A1FB00010023FEF758FE2168C1F3C9
:101640000141491C4900B0FBF1F010BD08380240CF
:101650000024F4002DE9F84F04006ED02078DFF864
:101660003C93C007A9F104054AD009F104000168C0
:10167000C1F38101012908D00068C0F3810002286C
:101680000AD1D9F80000400206D52868800337D572
:1016900060680028E1D033E06068B0F5803F10D08A
:1016A000B0F5A02F286810D020F48030286028687A
:1016B00020F4802028606068A8B1FFF761FE06462C
:1016C0000DE0286840F48030F4E740F48020286082
:1016D000F7E700BFFFF754FE801B642873D8286823
:1016E0008003F7D50CE0FFF74BFE064605E000BF90
:1016F000FFF746FE801B6428F0D828688003F7D4E3
:101700002078DFF89C8280074FF0000A3ED5A3487E
:10171000001D016811F00C0F08D00068C0F38100B3
:1017200002280BD1D9F80000400207D428688007AE
:1017300016D5E068012800D112E02BE1E068B8B1CD
:101740000120C8F80000FFF71BFE064605E000BFB9
:10175000FFF716FE801B0228C0D828688007F7D53F
:101760002868216920F0F80040EAC10028600DE0F7
:10177000C8F800A0FFF704FE064604E0FFF700FEED
:10178000801B02281FD828688007F7D4207800071C
:1017900022D5824E83486169703671B101210160A2
:1017A000FFF7EEFD074604E0FFF7EAFDC01B022845
:1017B00009D830688007F7D50EE0C0F800A0FFF721
:1017C000DFFD074605E082E0FFF7DAFDC01B0228D7
:1017D0007DD830688007F7D42078400768D5DFF8D7
:1017E000BCB100270BF13C0BDBF80000C0000BD4B0
:1017F000DBF8001041F08051CBF80010DBF800005E
:10180000012700F080500090674E3068C00510D46A
:10181000306840F480703060FFF7B2FD009005E062
:10182000FFF7AEFD0099401A022850D83068C00575
:10183000F6D55A4EA0686C3601280FD005283068BE
:1018400010D020F001003060306820F004003060DB
:10185000A068B8B1FFF794FD00900FE0306840F049
:101860000100F4E740F004003060F7E7FFF788FD7F
:101870000099411A41F28830814266D83068800769
:10188000F4D50EE0FFF77CFD009007E0FFF778FD50
:101890000099411A41F28830814256D83068800759
:1018A000F4D42FB1DBF8001021F08051CBF80010F8
:1018B000A069C8B33949091D0968C1F3810102292A
:1018C0004AD00228504607D0C8F8600000E03CE04B
:1018D000FFF756FD04463BE04746C8F86000FFF7B7
:1018E0004FFD064605E000BFFFF74AFD801B0228BA
:1018F0002BD828688001F7D4D4E907010843A16AEE
:101900002A4A490802EB0141626A41EA821108430E
:1019100094F82C1040EA0161C9F8001001203866E3
:10192000FFF72EFD044606E036E000BFFFF728FD76
:10193000001B022809D828688001F7D52CE000BFD9
:10194000FFF71EFD001B022802D90320BDE8F88F17
:1019500028688001F4D41FE00128F7D0D9F80000EE
:10196000E26900F48001914214D1226A00F03F0143
:1019700091420FD147F6C071626A0140914209D18C
:10198000A26A00F44031914204D1E16A00F0706033
:10199000884201D00120D9E70020D7E7043802406F
:1019A00000004742800E4742007000400000FFFFE9
:1019B00010B5401EB0F1807F01D3012010BD4FF063
:1019C000E02460610F21601701F099FA0020A06106
:1019D00007202061002010BD7047704710B590F8B7
:1019E0003C20012A22D0012280F83C20CA688C6861
:1019F00022F4407222434C6822F4806222430C6835
:101A000022F4006222430C6922F4805222434C6982
:101A100022F400522243C969002322F480420A437F
:101A200001684A6480F83C30002010BD022010BDDF
:101A300070B590F83C20012A32D0012480F83C4057
:101A4000022280F83D2003685A689D6822F07006E3
:101A50000A6832435A60134B02689A4214D0B2F1BA
:101A6000804F11D0104B9A420ED0104B9A420BD09F
:101A70000F4B9A4208D00F4B9A4205D00E4B9A4218
:101A800002D00E4B9A4204D1496825F080031943D5
:101A9000916080F83D40002180F83C10084670BD00
:101AA000022070BD0000014000040040000800401A
:101AB000000C0040000401400040014000180040BC
:101AC00010B504460068042201F001F92068416C59
:101AD00041F4004141642068816801F00701062952
:101AE00003D0016841F001010160002010BD10B574
:101AF000040003D094F83D0010B107E0012010BDB0
:101B0000002084F83C00204600F00CF8022084F805
:101B10003D00211D206801F069F8012084F83D0096
:101B2000002010BD08B500680B49884212D10B484F
:101B3000016841F0010101600068002200F001002D
:101B4000009001211920FFF789FCBDE80840192009
:101B5000FFF776BC08BD0000000001404438024099
:101B60000168CA6842F00102CA600068816801F039
:101B70000701062903D0016841F00101016000203E
:101B8000704770B5044690F83C00012817D0012535
:101B900084F83C50022084F83D002068826822F0DE
:101BA000770222F47F4282600868502830D00DDC32
:101BB00020284DD005DC98B310283BD148E0022006
:101BC00070BD302844D0402834D139E0602828D076
:101BD000702806D0B0F5805F2CD0B0F5005F29D119
:101BE0000AE0CB68D1E90121206801F07DF8206886
:101BF000816841F0770109E0CB68D1E901212068D3
:101C000001F072F82068816841F48041816011E040
:101C1000CA684968206801F03BF95021206807E054
:101C200016E0CA684968206801F043F9602120681D
:101C300001F064F884F83D50002084F83C0070BD49
:101C4000CA684968206801F023F940212068EFE75D
:101C5000226801461046EBE7704770B504460068FD
:101C600001694FF00005C943890715D4C168C9430C
:101C7000890711D4E91E016101202077206880695D
:101C80008007204602D0FFF7E7FF04E000F016F9D6
:101C9000204600F0B5F9257720680169C943490756
:101CA00017D4C168C943490713D46FF00401016117
:101CB000022020772068806910F4407F204602D0FF
:101CC000FFF7CAFF04E000F0F9F8204600F098F9A9
:101CD000257720680169C943090716D4C168C9433B
:101CE000090712D46FF008010161042020772068F1
:101CF000C0698007204602D0FFF7AEFF04E000F085
:101D0000DDF8204600F07CF9257720680169C94399
:101D1000C90617D4C168C943C90613D46FF01001AE
:101D20000161082020772068C06910F4407F2046B8
:101D300002D0FFF791FF04E000F0C0F8204600F069
:101D40005FF9257720680169C943C90708D1C168CF
:101D5000C943C90704D1891E0161204600F074F906
:101D600020680169C943090609D4C168C943090645
:101D700005D46FF0800101612046FFF72DFE206839
:101D80000169C943490609D4C168C943490605D454
:101D90006FF040010161204600F0B6FA2068016949
:101DA000C94389060BD4C168C943890607D46FF0BB
:101DB000200101612046BDE87040FFF70EBE70BDF6
:101DC00070B586B0044614216846FEF7C7FA344B56
:101DD000226800243349022533489A4222D10A68F6
:101DE00042F001020A600A6802F0010205920A68E4
:101DF00042F010020A60096802AA01F01001059180
:101E00008021CDE90015012682E870006946FFF7C0
:101E1000D5F92802CDE9000502AA694682E87000DA
:101E2000224838E0224B9A4237D10A6842F0010238
:101E30000A600A6802F0010205920A6842F0020292
:101E40000A600A6802F0020205920A6842F004027F
:101E50000A600968032601F0040105912021009120
:101E6000CDE90154CDE903466946FFF7A7F948F2E9
:101E700001000090CDE90154CDE9034669460D48C3
:101E8000FFF79CF94FF4E0700090CDE90154CDE9E3
:101E9000034669460848FFF791F906B070BD000097
:101EA00000000140303802400000024000100240B3
:101EB000000401400004024000080240704770B571
:101EC000044690F83C000D4601280DD0012684F808
:101ED0003C60022084F83D0042B1042A18D0082A50
:101EE0002AD00C2A4DD139E0022070BD206800F0C4
:101EF0000DFF2068816941F00801816120688169D6
:101F000021F004018161206881692A69114311E08F
:101F1000206800F02BFF2068816941F40061816135
:101F20002068816921F480618161206881692A6962
:101F300041EA0221816124E0206800F04DFF206821
:101F4000C16941F00801C1612068C16921F0040143
:101F5000C1612068C1692A69114311E0206800F05D
:101F60006FFF2068C16941F40061C1612068C169E7
:101F700021F48061C1612068C1692A6941EA0221B6
:101F8000C16184F83D60002084F83C0070BD10B54C
:101F9000040003D094F83D0010B107E0012010BD0B
:101FA000002084F83C00204600F00CF8022084F861
:101FB0003D00211D206800F019FE012084F83D003D
:101FC000002010BD08B500680B49884212D10B48AB
:101FD000016841F0020101600068002200F0020087
:101FE000009001212C20FFF739FABDE808402C2091
:101FF000FFF726BA08BD0000000401404438024043
:102000007047000010B504460068012200F052FE3F
:102010000B492068884202D00A49884203D1416CAA
:1020200041F4004141642068816801F007010629FC
:1020300003D0016841F001010160002010BD0000E3
:1020400000000140000401402DE9F0419F492DEDC1
:10205000068B88427ED1DFF878829E4CD8F8181023
:10206000491CC8F81810D8F81C10491CC8F81C10D6
:10207000208801F07DF8A4F5F0721060608801F00E
:1020800077F85060A08801F073F890601168A1F2B1
:10209000457100EE101AB8EEC00ADFED8F8A20EE0F
:1020A000280A9FED8E9A20EE090ADFED8D9A04F141
:1020B0001006A0F24570C0EE290AC6ED000A51686C
:1020C000A1F2457100EE101AB8EEC00A20EE280AFF
:1020D00020EE090AC0EE290A00EE100A3046B8EEDA
:1020E000C00A20EE280A20EE090AC6ED010AC0EE59
:1020F000290AC6ED020A00F0DFFFD6ED030A04F15B
:102100004005C5ED000A96ED041A85ED011A9FED14
:1021100075AA9FED758AF5EEC00AF1EE10FA08DD9A
:1021200081EE200A00F0FCFEC0EE0A0A20EE880ACA
:102130002AE0F5EEC00AF1EE10FA11D2B5EEC01A9F
:10214000F1EE10FA0CDD81EE200A00F0E9FEC0EE9F
:102150000A0A00E0B5E0B0EE480A00EE880A13E093
:10216000F5EEC00AF1EE10FA10D2B5EEC01AF1EE9B
:1021700010FA0BD281EE200A00F0D2FEC0EE0A0A5D
:10218000B0EE480A10EE880A85ED020A514F95ED2F
:10219000020A583707F1300587ED020A85ED020A79
:1021A000E08800F0E5FFA5F517721060208900F0C7
:1021B000DFFF5060608900F0DBFF90601168A5F1DF
:1021C0006006A1F2457100EE101AA0F24570B8EE5B
:1021D000C00A20EE280A20EE090AC0EE290AC6ED40
:1021E000000A5168A1F2457100EE101AB8EEC00A5B
:1021F00020EE280A20EE090AC0EE290A00EE100A95
:102200003046B8EEC00A20EE280A20EE090AC6EDD4
:10221000010AC0EE290AC6ED020A00F04DFF96ED54
:10222000030A384687ED000A96ED040A87ED010A95
:1022300000F0F2FFE089D8F8081044460844C8F8D6
:102240000800D8F81810192923DB192190FBF1F0A8
:10225000FEF770F99FED251B53EC112BFEF789F863
:102260009FED241B53EC112BFEF7F5F89FED231B7C
:1022700053EC112BFEF77DF8FEF76DF96060E16815
:102280000020002900DAE0601E4AE1685163A06086
:10229000A0611048883000F049FF0E4895ED000A13
:1022A000A03080ED000A95ED010A80ED010A01F0F1
:1022B00037F8BDEC068BBDE8F0410648A03000F0D1
:1022C0000BBCBDEC068BBDE8F0810000DC000020FB
:1022D000100000203C030020333353400000104224
:1022E00000F07F45DB0F49400000344366666666B8
:1022F00066660A400000000000FEAF4000000000DB
:1023000000002840000001407047FEE7034801211B
:10231000C0F8A812C0F8AC1270470000008041421B
:102320002DE9F04106461448016821F4401101608E
:10233000016841F480110160104C0027C4F8AC72B0
:102340003D464FF00108F009C4F8A8027006060ED9
:10235000022000F0D1FEC4F8AC82022000F0CCFED6
:10236000C4F8AC72022000F0C7FE6D1CEDB2082D5F
:10237000E9D3BDE8F0810000000C0240008041423A
:1023800070B50D48016821F440110160016841F405
:1023900080110160094C0120C4F8A802C4F8AC0205
:1023A000042004F52A7400F0A7FE0025256004200F
:1023B00000F0A2FE656070BD000C0240008041424A
:1023C00070B50D48016821F440110160016841F4C5
:1023D00080110160094C0020C4F8AC02C4F8A802C6
:1023E000042004F52A7400F087FE012565600420AE
:1023F00000F082FE256070BD000C0240008041426A
:1024000070B512480024016821F440110160016890
:1024100001600F4D0126C5F8A862304600F06CFE41
:10242000C5F8AC62012000F067FE07E0641CE4B26E
:10243000FA2C03D9FFF7C4FF012070BDD5F828029C
:102440000028F3D1C5F8AC0270BD0000000C0240BA
:10245000008041427FB500253948009501950295DD
:1024600036490395016001244FF480310461C0E9CD
:102470000115047680F820503249C0E90A15082673
:10248000C661C56080F830404461FEF7D8FB08B1F2
:10249000FEF78BFACDE90054694629480294FEF70D
:1024A00087FA08B1FEF781FA0094022469462448AD
:1024B0000194FEF77DFA08B1FEF777FA0094032441
:1024C00069461F480194FEF773FA08B1FEF76DFAEA
:1024D0000094042469461A480194FEF769FA08B189
:1024E000FEF763FA0520CDE9004069461448FEF77F
:1024F0005FFA08B1FEF759FA06200090019069468C
:102500000F48FEF755FA08B1FEF74FFA0920009080
:102510000720019069460A48FEF74AFA08B1FEF71B
:1025200044FA0B20CDE9000669460548FEF740FA5B
:10253000002801D0FEF739FA7FBD000000200140DD
:10254000340000200100000F094808B5016841F47B
:10255000800101600068002200F4800000901146B4
:102560003820FEF77BFFBDE808403820FEF768BF43
:10257000303802402DE9F04186B014216846FDF75D
:10258000EDFE2E480024016841F0800101600168E1
:1025900001F080010591016841F0040101600168CA
:1025A00001F004010591016841F001010160016839
:1025B00001F001010591016841F00201016001682B
:1025C00001F002010591016841F01001016001680C
:1025D00001F010010591016841F0080101600068F7
:1025E000174F00F008000590002201213846FEF741
:1025F000C1FEDFF850804FF440660022314640466D
:10260000FEF7B8FE01250095CDE90154694638462C
:102610000394FEF7D3FD0096CDE901546946404688
:102620000394FEF7CBFDE8038DE8310069460648C8
:10263000FEF7C4FD06B0BDE8F0810000303802406E
:1026400000080240000C02400000024010B596B0A5
:1026500000240F9410941194129413941C2108A830
:102660001494FDF77BFE20216846FDF777FE29488C
:102670002749C0E900142021816042F2CF01C0E95E
:1026800003148021C0E90541FFF731FA08B1FEF7D4
:102690008CF94FF480500F900FA91E48FFF771FA84
:1026A00008B1FEF782F91B48FFF771FC08B1FEF78D
:1026B0007CF9139413A917481494FFF7B9F908B1DA
:1026C000FEF773F96020CDE908040A940B940C948A
:1026D0000D94002208A90F480E94FFF7F0FB08B1F3
:1026E000FEF763F96420CDE9024000944FF40050F6
:1026F000CDE904400194694606480794FFF76EF956
:1027000008B1FEF752F90348FFF75AFB16B010BDA7
:1027100000000140DC00002010B592B000240F94AE
:102720001C2168461094FDF719FE202107A8FDF72B
:1027300015FE29482749C0E900142021816042F292
:10274000CF01C0E903148021C0E90541FFF71FFC58
:1027500008B1FEF72AF90F940FA91F481094FFF74C
:1027600067F908B1FEF721F96020CDE90004029471
:102770000394049405940022694617480694FFF7D1
:102780009EFB08B1FEF711F9042269461248FFF7D3
:1027900096FB08B1FEF709F9082269460E48FFF7D3
:1027A0008EFB08B1FEF701F9079464200894CDE987
:1027B00009404FF40050CDE90B4007A906480E949C
:1027C000FFF70CF908B1FEF7F0F80348FFF7F8FA45
:1027D00012B010BD000401401C010020FEE770474C
:1027E00030B40021084B0A465FF0000003EBC00440
:1027F000401CC0B262548028F8D3491CC9B20829D1
:10280000F2D330BC00F02AB80404002010B57F28B1
:1028100011D83F290FD8CB0801F0070101248C40C3
:10282000E1B2054C002A04EBC000C25C01D00A43AF
:1028300000E08A43C25410BD0404002070B5FFF7C5
:1028400065FD054D0024285D00F0A7F8641CE4B286
:10285000192CF8D370BD0000304E000870B50B4E37
:102860000024204600F0F8F80020FEF738F8002594
:1028700006EBC500005D00F0A7F86D1CEDB2802DE1
:10288000F6D3641CE4B2082CEBD370BD0404002022
:102890002DE9FF4F1D460C468946580700D0012000
:1028A00000EBD500690810FB01F0203A00F0FF0AA8
:1028B00002F0FF0B00263BE00C2D0FD0102D13D0A3
:1028C000182D37D11C490BEBCB0001EB80004FF0EA
:1028D0000008875D38060BD50D9A0CE017480BEB06
:1028E0004B0100EB8100F2E7154901EB0B10EEE71D
:1028F0000D9890B1002221460098FFF787FF7806D7
:10290000641C070EE4B2A4EB0900A84207D10098AA
:102910004C46401CC0B2009008E00122EBE708F1F1
:10292000010000F0FF08B8F1080FD3D3761CF6B20F
:102930005645C1D3BDE8FF8FD4400008703600086B
:10294000E43A00082DE9F84F04461F468020164659
:102950000D46A0EB5709C3F140084FF0010A16E0FD
:10296000A14502D20024E819C5B2A84503DA002423
:102970002546FFF735FFCDF800A032783B462946C3
:102980002046FFF785FF04EB5700C4B2761C307871
:1029900020385E28E4D9BDE8F88F10B50446FFF76B
:1029A000EFFC7820FFF7BCFCFFF72AFD0020FFF7C3
:1029B000B7FCFFF725FD2046FFF7B2FCFFF720FD2F
:1029C000BDE81040FFF7FCBC10B50446FFF7D8FC8B
:1029D0007820FFF7A5FCFFF713FD4020FFF7A0FCD0
:1029E000FFF70EFD2046FFF79BFCFFF709FDBDE852
:1029F0001040FFF7E5BC000000282AD0002A28D0AC
:102A00000170D2ED001AC0ED011AD2ED011AC0ED2D
:102A1000021AD2ED021AC0ED031A80ED081A80EDF9
:102A2000040A9FED0C0AC0ED050A80ED0F0A80ED47
:102A30000E0A80ED0D0A80ED090A80ED0C0A80ED8A
:102A40000B0A80ED0A0A80ED120A80ED110A80ED72
:102A5000100A704700000000B030C0B2FFF79DBF01
:102A60007047704710B51748FFF77AF800211548EE
:102A7000FFF7C8FA00211348FFF722F80421124893
:102A8000FFF7C0FA04211048FFF71AF800210E489A
:102A9000FFF7B8FA00210C48FFF712F808210A489E
:102AA000FFF7B0FA08210848FFF70AF8082207499B
:102AB0000748FEF767F905489FED060A703080ED7C
:102AC000020A10BDDC0000201C0100203C03002095
:102AD000340000200000B4421349D0ED050A134A27
:102AE00091ED000AB8EEC01A60EE810AFCEEE00A31
:102AF00010EE901A1160B8EEC01AD0ED060A121D41
:102B000060EE810AFCEEE00A10EE901A1160B8EE59
:102B1000C00AD0ED070A111D20EE800ABCEEC00AE3
:102B200010EE100A086070471000002034040140C5
:102B3000FEF72CBC30B593B030216846FDF70EFC93
:102B400014210CA8FDF70AFC19480025016841F082
:102B500080510160006800F08050119015480168B4
:102B600041F4804101600068022400F4804011902B
:102B700001200090000401908001CDE9064008AAE0
:102B80000420A82182E813000B906846FEF762FD3E
:102B90000CA90F2081E831004FF4A0500F90E00203
:102BA000109005210CA8FEF78BFC13B030BD00007F
:102BB00040380240007000400548016841F470014F
:102BC000016003494FF000608039086070470000E1
:102BD00088ED00E00148FFF740B80000DC0000206D
:102BE0000148FFF73AB800001C010020F0B5026868
:102BF000254C264D264E274F274B4FF0804CA042A8
:102C000009D0604507D0A84205D0B04203D0B842F1
:102C100001D0984204D122F0700E4A6842EA0E02B6
:102C2000A0421BD0604519D0A84217D0B04215D0A1
:102C3000B84213D0984211D0184DA8420ED0184D6A
:102C4000A8420BD0174DA84208D0174DA84205D076
:102C5000164DA84202D0164DA84203D122F4407569
:102C6000CA682A434D6922F080022A4302608A68BA
:102C7000C2620A688262A04201D0984201D1096909
:102C8000016301214161F0BD0000014000040040EA
:102C900000080040000C00400004014000400140DA
:102CA000004401400048014000180040001C004062
:102CB0000020004010B501F01F030121046A994073
:102CC0008C430462016A9A401143016210BD10B541
:102CD00001F01F030421046A99408C430462016AD5
:102CE0009A401143016210BD10B5846842EA032284
:102CF00024F47F440A432243826010BD826822F09C
:102D000070020A4342F0070181607047F0B5026A21
:102D100022F001020262036A42688469124E24F0C2
:102D200073050C682C4323F002058B682B430D4D73
:102D3000A84201D0B04205D123F00807CB683B433D
:102D400023F00403A84201D0B04205D14D6922F41A
:102D5000407215438A692A4342608461496841632D
:102D60000362F0BD0000014000040140F0B5026ABA
:102D700022F010020262026A436884690D6824F43A
:102D8000E64444EA05248D6822F0200242EA051256
:102D90000F4D104EA84201D0B04206D1CF6822F0AC
:102DA000800242EA071222F04002A84201D0B0425B
:102DB00007D14D6923F4406343EA85038D6943EAF3
:102DC000850343608461496881630262F0BD00004D
:102DD0000000014000040140F0B5026A22F4807254
:102DE0000262026A4368C46922F4007224F0730527
:102DF0000C68124E2C438D6842EA05220E4DA84203
:102E000001D0B04206D1CF6822F4006242EA072224
:102E100022F48062A84201D0B04207D14D6923F468
:102E2000405343EA05138D6943EA05134360C461C7
:102E30004968C1630262F0BD000001400004014026
:102E400030B5026A22F480520262046A4268C369A1
:102E50000D6823F4E64343EA05238D6824F4005407
:102E600044EA0534084DA84202D0084DA84204D1D6
:102E70004D6922F4804242EA85124260C36149688A
:102E80000164046230BD0000000001400004014004
:102E900010B5036A046A24F001040462846924F012
:102EA000F00444EA021423F00A020A438461026235
:102EB00010BD10B5036A23F0100303628369046A2E
:102EC00023F4704343EA023224F0A00343EA0111E1
:102ED0008261016210BDFEE74100080218BF0420B4
:102EE0000A0E18BF40F001004FF07F4232EA0101A4
:102EF00008BF40F00200012808BF052070470907FD
:102F0000090E002804DB00F1E02080F8001470476F
:102F100000F00F0000F1E02080F8141D7047000061
:102F200010B54FF00E412DED028BB0EE408A18EE39
:102F3000100A01EB4001B1F1145F5CD24FF0FE4189
:102F4000B1EB400F24BF9FED400AF0EE400A12D2D1
:102F500010F0004F19BFDFED3D0A9FED3D0ADFED98
:102F60003D0A9FED3D0AFFEE001A81EE881AB0EE91
:102F7000418A18EE100A4FF0FC41B1EB400F1BD212
:102F800010F0004FDFED351A9FED352A1DBFBEEE64
:102F9000001A70EEE10A30EE420AB6EE001A04BFE3
:102FA00070EEA10A30EE020A38EE412AF7EE001A5E
:102FB00048EE011A82EE218ADFED2A1A9FED2A2AB5
:102FC00028EE081A01EE212ADFED281A41EE021A36
:102FD0009FED272A01EE212ADFED261A41EE021A83
:102FE00028EE011A01EE210A30EE080ABDEC028B30
:102FF00030EE200A10BD4FF0E441B1EB400F0CD988
:1030000018EE100AFFF768FF042808BF00F03CF82C
:10301000B0EE480ABDEC028B10BD4FF07F41B1EB22
:10302000400F07D2B0EE480ABDEC028BBDE810405D
:1030300000F026B810F0004F14BF9FED0F0A9FED6F
:103040000F0ABDEC028B10BD000000000000C9BFDC
:1030500022AAFDB90000C93F22AAFD390060ED3E59
:10306000C30ACE372DAD65BD8FB8D53D0FB511BEA6
:1030700061C84C3EA8AAAABEDB0FC9BFDB0FC93F7F
:1030800030EE000A704700009FED020A20EE000AB1
:10309000704700000000001002E008C8121F08C1BD
:1030A000002AFAD170477047002001E001C1121FC9
:1030B000002AFBD170470000D0ED000A90ED010A14
:1030C000B6EE001AD0ED021A40EE410A30EE610A67
:1030D00041EEC10A9FED061A60EE810AC0ED030AB7
:1030E000DFED040A20EE200A80ED040A704700009C
:1030F000ABAA2A3F3ACD133F70B54FF0E02400222F
:1031000065690949A36909684843A1699942FCD0E6
:1031100002D2A3EB010302E0A5EB010633441A44FB
:103120000B468242F1D370BD300000201CB504462E
:1031300090ED020A694601A8FDF742F894ED030AF2
:10314000DDED000ADDED011A20EE201AD4ED040AAF
:1031500000EEE11A84ED001A9DED001A60EE810A7E
:103160009DED011A40EE010AC4ED010A1CBD0000EC
:1031700000EE900A9FED0A0A0B49F8EEE00A9FED77
:10318000091A20EE800AD1ED050AF8EEE00A01EEF8
:10319000200ABDEEC00A10EE100A48617047000018
:1031A0006666663FD0CCCC3D10000020FEF7F6F8F6
:1031B000FFF7C0FCFFF7DEF9FFF7C6F9FFF746FAA5
:1031C000FFF748F9FFF7A8FAFFF74CFC00F042F8C8
:1031D000FFF734FB0C489FED0B0A80ED030A0B4808
:1031E000B6EE000A80ED030A6420FDF7D5FFFFF775
:1031F000F7FA0021102306A20846FFF7A3FBFFF70A
:103200002DFBFEE7CDCCCC3EAC030020C403002058
:103210004F5554563A0000001CB5044690ED020A82
:10322000694601A8FCF7CCFF94ED001ADDED000A19
:1032300094ED010ADDED011A21EE202A00EE212A8B
:1032400020EE200A01EE610A84ED032A84ED040ACF
:103250001CBD000010B52E4A01212DED048B9FED01
:103260002A8ADFED2A8A2B48B0EE481AF0EE480A87
:10327000B0EE680AFFF7C0FB254A2648B0EE481AB0
:10328000F0EE480AB0EE680A0C3201219838FFF7D8
:10329000B3FB9FED219A1E4A1E48B0EE481AF0EE8D
:1032A000480AB0EE490A183201214C38FFF7A4FB56
:1032B000174A1848B0EE481AF0EE480AB0EE490A2C
:1032C000243201214C30FFF797FB114A1148B0EE30
:1032D000481AF0EE480A9FED110A30320121983069
:1032E000FFF78AFBB0EE481AF0EE480AB0EE680A23
:1032F000BDEC048B0121064A06483C32BDE8104073
:10330000E430FFF779BB0000000000009A99593FB4
:10331000C83500080C0200206666663F0000FA45CA
:103320002DED0E8B0021BEEE001A9D4AD0ED000A55
:1033300002F1500392EC04CA93EC042A103B93EC84
:10334000044A103B93EC046A103B93EC048A103B54
:1033500093EC04AAC0ED030A90ED010A80ED040A83
:1033600020EE011AF0EE411A9FED8EEAB5EEC00A8A
:1033700000EE8E1AF0EE41EAB0EE611A00EECE1ABF
:10338000F1EE10FA00DD0121F5EEC0EAF1EE10FADF
:1033900000DD891CB5EEC01AF1EE10FA00DD091D42
:1033A000F6EE001AC9B3804A9FED801AB7EE00EA24
:1033B00001293AD002295BD003297FD004297BD090
:1033C00005297AD0062925D124EE202A65EE200A87
:1033D00004EE802A45EE800A32EE200A10EE101A22
:1033E000914207DD62EE012A20EE811A82EE802AE8
:1033F000C1EE000A3EEE420A30EE600A20EE210ADB
:1034000080ED070A30EE020A80ED050A30EE200A50
:1034100080ED060ABDEC0E8B7047FFE7C0ED051A84
:10342000C0ED061AC0ED071AF4E72AEE202A6BEE6B
:10343000200A0AEE802A4BEE800A32EE200A10EEB5
:10344000101A914207DD62EE012A20EE811A82EE07
:10345000802AC1EE000A3EEE420A30EE600A20EEFB
:10346000210A80ED060A30EE020A80ED050A47E0E7
:1034700022EE202A63EE200A02EE802A43EE800A22
:1034800032EE200A10EE101A914207DD62EE012A98
:1034900020EE811A82EE802AC1EE000A3EEE420A38
:1034A00030EE600A20EE210A80ED050A30EE020AB5
:1034B00080ED070AAAE701E027E049E02CEE202A88
:1034C0006DEE200A0CEE802A4DEE800A32EE200AC4
:1034D00010EE101A914207DD62EE012A20EE811AE9
:1034E00082EE802AC1EE000A3EEE420A30EE600A09
:1034F00020EE210A80ED050A30EE020A80ED060A70
:1035000030EE200A80ED070A84E726EE202A67EED7
:10351000200A06EE802A47EE800A32EE200A10EEDC
:10352000101A914207DD62EE012A20EE811A82EE26
:10353000802AC1EE000A3EEE420A30EE600A20EE1A
:10354000210A80ED070A30EE020A80ED060A21E02A
:1035500028EE202A69EE200A08EE802A49EE800A29
:1035600032EE200A10EE101A914207DD62EE012AB7
:1035700020EE811A82EE802AC1EE000A3EEE420A57
:1035800030EE600A20EE210A80ED060A30EE020AD3
:1035900080ED070A30EE200A80ED050A3AE70000C8
:1035A00010360008D7B35D3FA4707D3FA4707D3F07
:1035B00000061016000610160000000000000000B3
:1035C00001020304060708096F12833A3480373A70
:1035D000000000006F12833A3480373A0000000088
:1035E0006F12033A82A8FB37000000006F12033A03
:1035F00082A8FB37000000000000003F0000A04050
:1036000000000000000000000000000000000000BA
:103610002DB25D3F000000BF000000000000803FB1
:103620002DB25DBF0000003F2DB25D3F0000003FA6
:10363000000000000000803F2DB25DBF000000BF11
:1036400000000000000080BF2DB25DBF0000003F01
:103650002DB25DBF000000BF2DB25D3F000000BF76
:103660002DB25D3F0000003F00000000000080BF61
:10367000000000000000000000000000000000004A
:103680003F4000000000000000003000400030001B
:103690004000000009000BC03D000BC03D000900C8
:1036A00018C024407FE0224031800000180024C070
:1036B0001B000D803240018003801C4027401C808D
:1036C0000740004010006000000000000000000003
:1036D0000000000000001F8020404020000040202B
:1036E00020401F8000000000090006001F80060027
:1036F00009000000040004003F80040004000000F2
:103700000010006000000000000000000400040041
:10371000040004000400000000000040000000005D
:1037200000000000002001C006003800400000003A
:103730001F802040204020401F80000000001040DB
:103740003FC000400000000018C02140224024403B
:103750001840000010802040244024401B800000BE
:1037600002000D0011003FC0014000003C802440D9
:1037700024402440238000001F8024402440344003
:10378000038000003000200027C038002000000027
:103790001B802440244024401B8000001C0022C0C9
:1037A000224022401F80000000000000084000006E
:1037B00000000000000000000460000000000000A5
:1037C000000004000A0011002080404009000900A8
:1037D000090009000900000000004040208011009D
:1037E0000A000400180020002340240018000000F4
:1037F0001F802040274029401F400000004007C094
:1038000039000F0001C0004020403FC02440244048
:103810001B8000001F80204020402040308000009E
:1038200020403FC0204020401F80000020403FC07B
:1038300024402E4030C0000020403FC024402E00D5
:10384000300000000F001080204022403380020032
:1038500020403FC0040004003FC0204020402040E2
:103860003FC02040204000000060202020203FC0BA
:103870002000200020403FC024400B0030C02040EA
:1038800020403FC020400040004000C03FC03C00FE
:1038900003C03C003FC0000020403FC00C4023005C
:1038A0003FC020001F802040204020401F8000009B
:1038B00020403FC024402400180000001F80214009
:1038C000214020E01FA0000020403FC024402600EF
:1038D00019C0004018C0244024402240318000001C
:1038E000300020403FC020403000000020003F80DA
:1038F000004000403F80200020003E0001C0070043
:1039000038002000380007C03C0007C03800000025
:10391000204039C0060039C0204000002000384057
:1039200007C0384020000000304021C02640384009
:1039300020C00000000000007FE040204020000088
:10394000000070000C0003800040000000004020D8
:1039500040207FE000000000000020004000200028
:1039600000000000001000100010001000100010F7
:103970000000000040000000000000000000028085
:103980000540054003C0004020003FC00440044003
:103990000380000000000380044004400640000053
:1039A00000000380044024403FC00040000003802A
:1039B0000540054003400000000004401FC02440B3
:1039C00024402000000002E005500550065004206D
:1039D00020403FC00440040003C0004000000440F9
:1039E00027C000400000000000100010041027E075
:1039F0000000000020403FC00140070004C0044018
:103A0000204020403FC000400040000007C00400AC
:103A100007C0040003C00000044007C004400400C5
:103A200003C0004000000380044004400380000005
:103A3000041007F0045004400380000000000380DD
:103A40000440045007F00010044007C00240040086
:103A500004000000000006400540054004C00000CE
:103A6000000004001F8004400040000004000780A4
:103A70000040044007C000400400070004C001806B
:103A800006000400060001C0070001C00600000097
:103A9000044006C0010006C00440000004100710E6
:103AA00004E00180060004000000044005C0064058
:103AB000044000000000000004007BE04020000003
:103AC000000000000000FFF00000000000004020A7
:103AD0007BE0040000000000400080004000200067
:103AE0002000400000000000000000000000000076
:103AF000000000000000000000001FCC000C0000CF
:103B000000000000000008003000600008003000E5
:103B100060000000022003FC1E20022003FC1E2087
:103B20000220000000000E1811043FFF10840C78E2
:103B3000000000000F0010840F3800C007781884C0
:103B40000078000000780F8410C411240E9800E45F
:103B500000840008080068007000000000000000F9
:103B60000000000000000000000007E0181820041A
:103B700040020000000040022004181807E0000086
:103B8000000000000240024001800FF0018002406E
:103B9000024000000080008000800FF8008000805C
:103BA000008000000001000D000E00000000000079
:103BB0000000000000000080008000800080008085
:103BC000008000800000000C000C000000000000DD
:103BD00000000000000000060018006001800600E0
:103BE00018002000000007F008081004100408085E
:103BF00007F000000000080408041FFC0004000493
:103C00000000000000000E0C101410241044118459
:103C10000E0C000000000C1810041104110412888E
:103C20000C700000000000E00320042408241FFCA6
:103C30000024000000001F98108411041104108853
:103C400010700000000007F00888110411041888A3
:103C50000070000000001C00100010FC13001C008D
:103C60001000000000000E3811441084108411442C
:103C70000E38000000000700088C1044104408882B
:103C800007F00000000000000000030C030C00001F
:103C9000000000000000000000010106000000001C
:103CA000000000000000008001400220041008080D
:103CB0001004000002200220022002200220022024
:103CC0000220000000001004080804100220014037
:103CD0000080000000000E001200100C106C10801C
:103CE0000F00000003E00C1813E4142417C4082884
:103CF00007D000000004003C03C41C40074000E45F
:103D0000001C000410041FFC1104110411040E888F
:103D10000070000003E00C181004100410041008D8
:103D20001C10000010041FFC1004100410040808EC
:103D300007F0000010041FFC1104110417C4100444
:103D40000818000010041FFC1104110017C0100017
:103D50000800000003E00C181004100410441C7844
:103D60000040000010041FFC1084008000801084BC
:103D70001FFC10040000100410041FFC10041004A9
:103D80000000000000030001100110011FFE1000E0
:103D90001000000010041FFC110403801464181CA0
:103DA0001004000010041FFC1004000400040004B0
:103DB000000C000010041FFC1F0000FC1F001FFC73
:103DC0001004000010041FFC0C04030000E0101895
:103DD0001FFC100007F00808100410041004080865
:103DE00007F0000010041FFC108410801080108069
:103DF0000F00000007F0081810241024101C080AF7
:103E000007F2000010041FFC1104110011C0113052
:103E10000E0C000400000E1C1104108410841044C9
:103E20001C3800001800100010041FFC10041000C3
:103E30001800000010001FF8100400040004100413
:103E40001FF8100010001E0011E0001C007013800D
:103E50001C0010001FC0103C00E01F0000E0103CE0
:103E60001FC000001004180C163401C001C0163425
:103E7000180C100410001C00130400FC13041C0098
:103E8000100000000804101C1064108413041C04AB
:103E9000101800000000000000007FFE40024002F9
:103EA00040020000000030000C0003800060001C95
:103EB0000003000000004002400240027FFE0000BC
:103EC0000000000000000000200040004000400012
:103ED00020000000000100010001000100010001BC
:103EE0000001000100004000400020000000000030
:103EF0000000000000000098012401440144014436
:103F000000FC000410001FFC00880104010400886C
:103F1000007000000000007000880104010401042A
:103F200000880000000000700088010401041108EE
:103F30001FFC0004000000F8014401440144014456
:103F400000C800000000010401040FFC110411046A
:103F500011001800000000D601290129012901C91A
:103F60000106000010041FFC008401000100010490
:103F700000FC000400000104190419FC0004000402
:103F8000000000000000000300010101190119FEFA
:103F90000000000010041FFC0024004001B4010CCC
:103FA000010400000000100410041FFC00040004C1
:103FB00000000000010401FC0104010001FC0104F7
:103FC000010000FC010401FC008401000100010467
:103FD00000FC0004000000F80104010401040104D5
:103FE00000F80000010101FF0085010401040088C0
:103FF0000070000000000070008801040104010549
:1040000001FF00010104010401FC0084010401001E
:1040100001800000000000CC0124012401240124BF
:104020000198000000000100010007F801040104EC
:1040300000000000010001F8000400040004010871
:1040400001FC0004010001800170000C00100160FF
:104050000180010001F0010C003001C00030010CB2
:1040600001F0010000000104018C00740170018C5A
:1040700001040000010101810171000E00180160BE
:104080000180010000000184010C0134014401841D
:10409000010C0000000000000000000001003EFCD8
:1040A000400240020000000000000000FFFF00008E
:1040B000000000000000400240023EFC0100000041
:1040C0000000000000006000800080004000400010
:1040D00020002000000000000000000000000000A0
:1040E00000000000000000000000000000000000D0
:1040F00000000000000000000000000000000000C0
:10410000000000000000000F80380FFE380F8038DC
:10411000000000000000000000000000000000009F
:1041200000000100000600000C0000380000310013
:10413000000600000C000038000030000000000005
:104140000000000061800067F807F98000618000CE
:1041500061800061800061800067F807F98000617C
:104160008000000000000000000001C0E003E0F05B
:104170000630080418081FFFFE040E080787F00326
:1041800081E000000000000001F000060C000404C3
:1041900008060C7001F9C0000E00003BE000EC18AE
:1041A000070808040C180003E00000000001E0000C
:1041B00007F003F818041C0804170807E1D003C02F
:1041C000E00023B0003C08002008000010000000C0
:1041D0000000000100003100003200001C0000005F
:1041E00000000000000000000000000000000000CF
:1041F00000000000000000000000000000000000BF
:10420000000000007F0001FFC00780F00C001810C4
:104210000004200002000000000000200002100046
:10422000040C00180780F001FFC0007F00000000B0
:10423000000000000000000000000000000000007E
:104240004200006600006600003C0000180003FF0A
:10425000C0001800003C000066000066000042003C
:10426000000000000800000800000800000800002E
:10427000080001FFC0000800000800000800000856
:1042800000000800000000000001000031000032C2
:1042900000001C0000000000000000000000000002
:1042A00000000000000000000000000008000008FE
:1042B00000000800000800000800000800000800D6
:1042C00000080000080000080000000000000000D6
:1042D0000000000038000038000038000000000036
:1042E00000000000000000000000000000000000CE
:1042F00000000000000600001C00007000018000AB
:104300000E0000380000C0000700001C0000300054
:1043100000000000000000007F8001FFE0038070CB
:104320000600180400080400080600180380700145
:10433000FFE0007F8000000000000000000001009E
:104340000801000801000803FFF807FFF800000853
:10435000000008000008000000000000000000014C
:10436000C03802C05804009804011804021804045C
:1043700018061C1803F81801E0F8000000000000FF
:1043800000000001C0E003C0F004000804080804B5
:10439000080806180803F41801E7F00001E000001F
:1043A00000000000000000000300000D00001100EC
:1043B00000610000810803010807FFF80FFFF80003
:1043C00001080001080000000000000000E007FCF8
:1043D000D006080806100806100806100806183847
:1043E000060FF00607C000000000000000000000FB
:1043F0003F8001FFE0038430020818041008041015
:1044000008041008071810030FF00007C000000090
:1044100000000000000003C00007000006000006C6
:1044200000F80607F806180006E00007000006007E
:104430000000000000000001E1E003F7F006341086
:10444000041808041808040C08040C0806161803BD
:10445000F3F001C1E000000000000000F80003FCE0
:104460003003063804020804020804020804041099
:104470000308F001FFC0007F000000000000000002
:104480000000000000000000000000007038007014
:10449000380070380000000000000000000000003C
:1044A000000000000000000000000000000000000C
:1044B000301A00301C000000000000000000000066
:1044C00000000000000000000000000800001400D0
:1044D0000022000041000080800100400200200412
:1044E000001008000800000000000000210000216A
:1044F0000000210000210000210000210000210017
:104500000021000021000021000000000000000048
:104510000000080008040010020020010040008094
:10452000800041000022000014000008000000008C
:1045300000000003C00004C00004000008003808A8
:104540000F380808380810000C300007E00003C0DE
:1045500000000000000000003F8000FFE0038070CA
:10456000020F1006708804C088048308047F880244
:10457000C09003012000FE40000008000018000168
:10458000F8003E0801C20007020007E20000FE003A
:10459000001FC80001F800003800000804000807E8
:1045A000FFF807FFF80408080408080408080408CE
:1045B0000806180803F41801E7F00001E000000005
:1045C000000000003F8001FFE0038070020018043B
:1045D00000080400080400080400100600200780FA
:1045E000C000000004000807FFF807FFF8040008F7
:1045F0000400080400080400180200100380700181
:10460000FFE0007F8000000004000807FFF807FFBC
:10461000F8040808040808040808040808043E0808
:1046200004000806001801006000000004000807EC
:10463000FFF807FFF804080804080004080004084D
:1046400000043E000600000600000180000000009B
:10465000000000003F8001FFE003807006001804A6
:1046600000080402080402080203F00783F00002B5
:104670000000020004000807FFF807FFF80408081C
:1046800000080000080000080000080004080807EF
:10469000FFF807FFF8040008000000000000040015
:1046A0000804000804000807FFF807FFF8040008E2
:1046B00004000804000800000000000000000000E2
:1046C00000060000070000010400010400010400CE
:1046D0000307FFFE07FFFC040000040000040000C5
:1046E00004000807FFF807FFF8040C080018000092
:1046F0003E0004C7800503C80600F8040038040023
:104700001800000804000807FFF807FFF804000875
:104710000000080000080000080000080000080071
:10472000001800006000000004000807FFF8078080
:104730000807FC00007FC00003F80007C0007800F5
:1047400007800807FFF807FFF804000804000807BF
:10475000FFF807000803C00000E000003800001E5A
:10476000000007000001C00400F007FFF80400008B
:10477000000000007F8001FFE00380700600180445
:10478000000804000806001803003001FFE0007F65
:104790008000000004000807FFF807FFF804040881
:1047A000040400040400040400040400060C0003D4
:1047B000F80001F000000000000000007F8001FF11
:1047C000E00380700600880400880400C806003CEE
:1047D00003003E01FFE6007F84000000040008079C
:1047E000FFF807FFF8040808040800040C00040F91
:1047F00000040BC00610F003F03801E008000008C8
:1048000000000001E0F803F030063010041808043E
:104810001808040C08040C080206180207F00781A7
:10482000E000000001800006000004000004000019
:1048300004000807FFF807FFF8040008040000045C
:10484000000006000001800004000007FFE007FFF1
:10485000F00400180000080000080000080000082C
:1048600000000804001007FFE00400000400000638
:10487000000007E00007FE00041FE00001F8000050
:10488000380001E0043E0007C000060000040000FC
:1048900004000007E00007FFC0041FF80007C0077E
:1048A000F80007FF80043FF80007C004F800070085
:1048B0000004000000000004000806001807C0788B
:1048C00005F1C8003E00001F800463E80780F80679
:1048D0000018040008000000040000060000078023
:1048E0000007E008047C08001FF80007F80018081B
:1048F00004E00807000006000004000000000001BA
:1049000000080600380400F80403E8040F08047CDB
:104910000805F00807C00807001804006000000040
:104920000000000000000000000000000000003F48
:10493000FFFE2000022000022000022000022000D2
:104940000200000000000000000008000007000056
:1049500000C0000038000006000001C00000300068
:10496000000E000001000000000000000000200018
:10497000022000022000022000022000023FFFFE71
:104980000000000000000000000000000000000027
:1049900000000000000800001000003000002000AF
:1049A00000300000100000080000000000000000BF
:1049B00000000100000100000100000100000100F2
:1049C00000010000010000010000010000010000E2
:1049D00001000001000000000000000000200000B5
:1049E0002000001000001000000000000000000087
:1049F00000000000000000000000000000F00019AE
:104A0000F8001B18002208002608002408002410C3
:104A1000003FF8001FF80000080000180000000424
:104A2000000007FFF80FFFF0001818001008002022
:104A300008002008003018001FF0000FC000000020
:104A40000000000007C0001FF00018300020080020
:104A50002008002008003C08001C10000060000036
:104A6000000000000000000007C0001FF000381820
:104A700000200800200800200804101007FFF80F8D
:104A8000FFF0000010000000000000000000000720
:104A9000C0001FF000123000221800220800220877
:104AA000003208001E10000E200000000000000070
:104AB000200000200800200801FFF803FFF806206E
:104AC000080420080420080720000300000000005C
:104AD00000000000000E000E6E001FF30031B10058
:104AE00020B10020B1003191001F13002E1E0020C4
:104AF0000E00300000000004000807FFF80FFFF868
:104B0000001008002000002000002008003FF800EE
:104B10001FF8000008000000000000000000002056
:104B200008002008002008063FF8063FF8000008AB
:104B30000000080000080000000000000000000065
:104B400000000000030000030020010020010020FD
:104B500003063FFE063FFC000000000000000000CE
:104B600000000004000807FFF80FFFF800018800AC
:104B70000300002FC00038F8002038002008000093
:104B80000800000000000000000004000804000805
:104B900004000807FFF80FFFF800000800000800F5
:104BA0000008000000000000002008003FF8003F5F
:104BB000F8001008002000003FF8003FF80010083F
:104BC000002000003FF8003FF8000008000000004F
:104BD0002008003FF8003FF80010080010000020F7
:104BE00000002008003FF8001FF800000800000047
:104BF0000000000007C0000FF0001830003008006F
:104C00002008002008003008001830000FF00007CE
:104C1000C0000000000000002001003FFF003FFF37
:104C20000010110020090020080020080030380082
:104C30001FF0000FC00000000000000007C0001FB0
:104C4000F00038180020080020080020090010118A
:104C5000001FFF003FFF00000100000000200800CF
:104C60002008002008003FF8003FF8000808001066
:104C70000800200800200000300000300000000084
:104C8000000000000000000C78001E18003308002F
:104C900023080021080021880021980030F0003806
:104CA0006000000000000000200000200000200044
:104CB00000FFF003FFF80020080020080020080093
:104CC0000030000000000000000000002000003F55
:104CD000F0007FF800001800000800000800201015
:104CE000003FF8007FF0000010000000000000000E
:104CF0002000003000003C00003F800023F0000056
:104D000078000070002380003C000030000020008C
:104D1000002000003C00003FE00023F80000E0001D
:104D20002700003E00003FE00021F80001E0003EC7
:104D30000000200000000000200800200800383893
:104D4000003E680027800003C8002CF800383800B7
:104D500020180020080000000000000020000030A3
:104D600003003C01003F830023EC0000700023801F
:104D7000003C0000200000200000000000000000B7
:104D800000000038080020380020F80023E8002F39
:104D900088003E080038080020180000700000005D
:104DA0000000000000000000000000000000000003
:104DB00008000014001FF7FC30000620000200006D
:104DC00000000000000000000000000000000000E3
:104DD000000000000000FFFFFF00000000000000D6
:104DE00000000000000000000000000000002000A3
:104DF000023000061FF7FC0014000008000000004D
:104E0000000000000000000000000000000000188A
:104E10000000600000400000400000200000100082
:104E2000000800000400000400000C000010000056
:104E3000AED580A83FD300408D142002A1C8DA125D
:104E400081EFD9F1DB30A4A6AF0000000000000024
:104E5000920E493CB10AC93C2BC3163D2EFB483D7E
:104E6000752B7B3D04A9963D80B6AF3D36BDC83D50
:104E70002FBCE13D73B2FA3D87CF093E8340163E19
:104E8000B5AB223EA2102F3ECF6E3B3EC2C5473E81
:104E90000115543E135C603E7F9A6C3ECCCF783E49
:104EA000C07D823E938E883E229A8E3E32A0943EF2
:104EB00086A09A3EE59AA03E128FA63ED47CAC3ED8
:104EC000EF63B23E2A44B83E491DBE3E15EFC33ED5
:104ED00053B9C93ECA7BCF3E4136D53E80E8DA3E63
:104EE0004F92E03E7533E63EBBCBEB3EEA5AF13ED5
:104EF000CBE0F63E275DFC3EE4E7003F3D9C033FF0
:104F0000824B063F9BF5083F6B9A0B3FDA390E3F09
:104F1000CDD3103F2A68133FD9F6153FC07F183F05
:104F2000C6021B3FD17F1D3FCBF61F3F9967223F33
:104F300025D2243F5636273F1594293F4AEB2B3F75
:104F4000DE3B2E3FBB85303FC9C8323FF304353FBF
:104F5000233A373F4268393F3B8F3B3FF9AE3D3FF5
:104F600067C73F3F70D8413F01E2433F03E4453FFD
:104F700065DE473F12D1493FF8BB4B3F029F4D3F93
:104F8000207A4F3F3D4D513F4918533F31DB543F4D
:104F9000E595563F5348583F6AF2593F1A945B3F94
:104FA000532D5D3F05BE5E3F2146603F97C5613F83
:104FB0005A3C633F59AA643F880F663FD86B673FEE
:104FC0003CBF683FA7096A3F0C4B6B3F5E836C3F59
:104FD00093B26D3F9ED86E3F73F56F3F0809713FE6
:104FE0005213723F4714733FDD0B743F0BFA743F4B
:104FF000C6DE753F07BA763FC58B773FF853783FDB
:105000009812793F9DC7793F02737A3FBE147B3F68
:10501000CDAC7B3F283B7C3FC9BF7C3FAC3A7D3F5A
:10502000CCAB7D3F23137E3FB0707E3F6DC47E3F8F
:10503000580E7F3F6D4E7F3FAB847F3F0FB17F3F68
:1050400097D37F3F43EC7F3F11FB7F3F0000803FC2
:1050500011FB7F3F43EC7F3F97D37F3F0FB17F3FF3
:10506000AB847F3F6D4E7F3F580E7F3F6DC47E3FC8
:10507000B0707E3F23137E3FCCAB7D3FAC3A7D3F8B
:10508000C9BF7C3F283B7C3FCDAC7B3FBE147B3F00
:1050900002737A3F9DC7793F9812793FF853783F62
:1050A000C58B773F07BA763FC6DE753F0BFA743F74
:1050B000DD0B743F4714733F5213723F0809713F71
:1050C00073F56F3F9ED86E3F93B26D3F5E836C3F2A
:1050D0000C4B6B3FA7096A3F3CBF683FD86B673FEB
:1050E000880F663F59AA643F5A3C633F97C5613FAA
:1050F0002146603F05BE5E3F532D5D3F1A945B3FE6
:105100006AF2593F5348583FE595563F31DB543FCB
:105110004918533F3D4D513F207A4F3F029F4D3F2D
:10512000F8BB4B3F12D1493F65DE473F03E4453FA3
:1051300001E2433F70D8413F67C73F3FF9AE3D3F73
:105140003B8F3B3F4268393F233A373FF304353FBB
:10515000C9C8323FBB85303FDE3B2E3F4AEB2B3F79
:105160001594293F5636273F25D2243F9967223F81
:10517000CBF61F3FD17F1D3FC6021B3FC07F183FAC
:10518000D9F6153F2A68133FCDD3103FDA390E3FC9
:105190006B9A0B3F9BF5083F824B063F3D9C033FBC
:1051A000E4E7003F275DFC3ECBE0F63EEA5AF13EE5
:1051B000BBCBEB3E7533E63E4F92E03E80E8DA3EF5
:1051C0004136D53ECA7BCF3E53B9C93E15EFC33EEB
:1051D000491DBE3E2A44B83EEF63B23ED47CAC3E8D
:1051E000128FA63EE59AA03E86A09A3E32A0943E3B
:1051F000229A8E3E938E883EC07D823ECCCF783EF2
:105200007F9A6C3E135C603E0115543EC2C5473E1A
:10521000CF6E3B3EA2102F3EB5AB223E8340163EE2
:1052200087CF093E73B2FA3D2FBCE13D36BDC83D84
:1052300080B6AF3D04A9963D752B7B3D2EFB483DC6
:105240002BC3163DB10AC93C920E493C0000000038
:10525000920E49BCB10AC9BC2BC316BD2EFB48BD7A
:10526000752B7BBD04A996BD80B6AFBD36BDC8BD4C
:105270002FBCE1BD73B2FABD87CF09BE834016BE15
:10528000B5AB22BEA2102FBECF6E3BBEC2C547BE7D
:10529000011554BE135C60BE7F9A6CBECCCF78BE45
:1052A000C07D82BE938E88BE229A8EBE32A094BEEE
:1052B00086A09ABEE59AA0BE128FA6BED47CACBED4
:1052C000EF63B2BE2A44B8BE491DBEBE15EFC3BED1
:1052D00053B9C9BECA7BCFBE4136D5BE80E8DABE5F
:1052E0004F92E0BE7533E6BEBBCBEBBEEA5AF1BED1
:1052F000CBE0F6BE275DFCBEE4E700BF3D9C03BFEC
:10530000824B06BF9BF508BF6B9A0BBFDA390EBF05
:10531000CDD310BF2A6813BFD9F615BFC07F18BF01
:10532000C6021BBFD17F1DBFCBF61FBF996722BF2F
:1053300025D224BF563627BF159429BF4AEB2BBF71
:10534000DE3B2EBFBB8530BFC9C832BFF30435BFBB
:10535000233A37BF426839BF3B8F3BBFF9AE3DBFF1
:1053600067C73FBF70D841BF01E243BF03E445BFF9
:1053700065DE47BF12D149BFF8BB4BBF029F4DBF8F
:10538000207A4FBF3D4D51BF491853BF31DB54BF49
:10539000E59556BF534858BF6AF259BF1A945BBF90
:1053A000532D5DBF05BE5EBF214660BF97C561BF7F
:1053B0005A3C63BF59AA64BF880F66BFD86B67BFEA
:1053C0003CBF68BFA7096ABF0C4B6BBF5E836CBF55
:1053D00093B26DBF9ED86EBF73F56FBF080971BFE2
:1053E000521372BF471473BFDD0B74BF0BFA74BF47
:1053F000C6DE75BF07BA76BFC58B77BFF85378BFD7
:10540000981279BF9DC779BF02737ABFBE147BBF64
:10541000CDAC7BBF283B7CBFC9BF7CBFAC3A7DBF56
:10542000CCAB7DBF23137EBFB0707EBF6DC47EBF8B
:10543000580E7FBF6D4E7FBFAB847FBF0FB17FBF64
:1054400097D37FBF43EC7FBF11FB7FBF000080BFBE
:1054500011FB7FBF43EC7FBF97D37FBF0FB17FBFEF
:10546000AB847FBF6D4E7FBF580E7FBF6DC47EBFC4
:10547000B0707EBF23137EBFCCAB7DBFAC3A7DBF87
:10548000C9BF7CBF283B7CBFCDAC7BBFBE147BBFFC
:1054900002737ABF9DC779BF981279BFF85378BF5E
:1054A000C58B77BF07BA76BFC6DE75BF0BFA74BF70
:1054B000DD0B74BF471473BF521372BF080971BF6D
:1054C00073F56FBF9ED86EBF93B26DBF5E836CBF26
:1054D0000C4B6BBFA7096ABF3CBF68BFD86B67BFE7
:1054E000880F66BF59AA64BF5A3C63BF97C561BFA6
:1054F000214660BF05BE5EBF532D5DBF1A945BBFE2
:105500006AF259BF534858BFE59556BF31DB54BFC7
:10551000491853BF3D4D51BF207A4FBF029F4DBF29
:10552000F8BB4BBF12D149BF65DE47BF03E445BF9F
:1055300001E243BF70D841BF67C73FBFF9AE3DBF6F
:105540003B8F3BBF426839BF233A37BFF30435BFB7
:10555000C9C832BFBB8530BFDE3B2EBF4AEB2BBF75
:10556000159429BF563627BF25D224BF996722BF7D
:10557000CBF61FBFD17F1DBFC6021BBFC07F18BFA8
:10558000D9F615BF2A6813BFCDD310BFDA390EBFC5
:105590006B9A0BBF9BF508BF824B06BF3D9C03BFB8
:1055A000E4E700BF275DFCBECBE0F6BEEA5AF1BEE1
:1055B000BBCBEBBE7533E6BE4F92E0BE80E8DABEF1
:1055C0004136D5BECA7BCFBE53B9C9BE15EFC3BEE7
:1055D000491DBEBE2A44B8BEEF63B2BED47CACBE89
:1055E000128FA6BEE59AA0BE86A09ABE32A094BE37
:1055F000229A8EBE938E88BEC07D82BECCCF78BEEE
:105600007F9A6CBE135C60BE011554BEC2C547BE16
:10561000CF6E3BBEA2102FBEB5AB22BE834016BEDE
:1056200087CF09BE73B2FABD2FBCE1BD36BDC8BD80
:1056300080B6AFBD04A996BD752B7BBD2EFB48BDC2
:105640002BC316BDB10AC9BC920E49BC0000008034
:105650007056000800000020340000009830000858
:10566000A456000834000020D4270000A830000809
:105670000100000010000000000000000024F40001
:10568000D02000000000000000000000A00F00007B
:10569000000000000000000000000000000000000A
:0456A0000000000006
:040000050800018965
:00000001FF
