:020000040800F2
:10000000600700209D010008932200081B1F0008C4
:100010009122000899050008AF28000800000000A0
:100020000000000000000000000000004324000861
:100030004D060008000000004124000809250008C2
:10004000B7010008B7010008B7010008B7010008B0
:10005000B7010008B7010008B7010008B7010008A0
:10006000B7010008B7010008B7010008B701000890
:10007000B7010008B7010008B7010008B701000880
:10008000B7010008B701000865040008B7010008BF
:10009000B7010008B7010008B7010008B701000860
:1000A000B7010008AD250008B7010008B701000836
:1000B000B7010008B7010008B7010008B701000840
:1000C000B7010008B7010008B7010008B701000830
:1000D000B7010008B7010008B7010008B701000820
:1000E000B7010008B7010008B7010008B701000810
:1000F000B9250008B7010008B7010008B7010008DA
:10010000B7010008B7010008B7010008B7010008EF
:10011000B7010008B7010008B7010008B7010008DF
:100120009D050008B7010008B7010008B7010008E5
:10013000B7010008B7010008B7010008B7010008BF
:10014000B7010008B7010008B7010008B7010008AF
:10015000B7010008B7010008B7010008B70100089F
:10016000B7010008B7010008B7010008B70100088F
:10017000B7010008B7010008B7010008000000003F
:10018000B7010008B7010008DFF80CD000F010F943
:1001900000480047512B00086007002006488047B0
:1001A00006480047FEE7FEE7FEE7FEE7FEE7FEE75C
:1001B000FEE7FEE7FEE7FEE791250008890100085B
:1001C000DFED460A60EE200AF5EEC00AF1EE10FA05
:1001D00038BFF1EE600ABDEEE01ADFF808C1F7EEB5
:1001E000004AB0EE085AB8EEC11AB5EEC00A70EE79
:1001F000C10A9FED3B1A20EE811AFCEEC10A10EEF7
:10020000902AC2F3080200EE902A02F180030CEB60
:100210008202F8EE600AD2ED001AC3F308030CEB79
:100220008303F1EE612A71EE600AD2ED011A93EDBB
:10023000001A93ED012AF1EE613A74EEE01A32EE03
:10024000413A61EE811A40EE821A32EEA32ADFEDC6
:10025000261A22EE214AB0EE002A42EE223A02EE9F
:10026000434A23EE053A03EEE13A00EE843A34EED7
:10027000E04A20EE833A02EEA13A00EE831A81EDC5
:10028000001A92ED001AD2ED013AD3ED002A24EEC5
:10029000014A93ED013A00EEA34A32EE834A73EE2F
:1002A000C13A02EE223A24EE214A02EE634A63EE9C
:1002B000853A43EE613A40EE843A20EEA32A02EEFC
:1002C000A12A00EE821AF1EE10FA80ED001A3CBF6E
:1002D000B1EE410A80ED000A70470000610B363B29
:1002E00000000044982F0008DB0F493C2DE9F05F27
:1002F0000546002092469B46884606468146402495
:100300001BE0284641464746224600F041F8534646
:100310005A46C01A914110D311461846224600F0A1
:1003200028F82D1A67EB01084F46224601200021CC
:1003300000F01FF817EB00094E41201EA4F1010444
:10034000DFDC484631462A464346BDE8F09FD2B23C
:1003500001E000F8012B491EFBD270470022F6E7AE
:1003600010B513460A4604461946FFF7F0FF20462B
:1003700010BD202A04DB203A00FA02F10020704769
:100380009140C2F1200320FA03F3194390407047D3
:10039000202A04DB203A21FA02F00021704721FADA
:1003A00002F3D040C2F12002914008431946704741
:1003B000064C074D06E0E06840F0010394E80700B2
:1003C00098471034AC42F6D3FFF7E2FE9C370008A2
:1003D000BC37000810B50146806B026C12F0500F5C
:1003E00005D0026CD20626D500F0DCF910BD016CF8
:1003F00041F40071016401688A6812F0405F17D10E
:10040000027EAAB9CA6A12F4700F02D08A68520535
:100410000ED44A6822F020024A60016C21F48071F7
:100420000164016CC90403D4016C41F00101016451
:1004300000F0B6F910BD806BC26CBDE810400846F4
:10044000104710B5806B40210164416C41F00401FC
:10045000416400F0A7F910BD10B5806B00F0A1F960
:1004600010BD0000014800F09EB9000024000020EB
:10047000464910B54A6822F440324A604A684368E7
:100480001A434A6001684A6822F480724A6001682F
:100490004A68036942EA03224A6001684A6822F016
:1004A00040724A6001684A6883681A434A6001687A
:1004B0008A6822F400628A6001688A68C3681A4305
:1004C0008A60816A6FF07062D14201688A6822F0A6
:1004D00070628A6001688A680CD0836A1A438A60F5
:1004E00001688A6822F040528A6001688A68C36A9B
:1004F0001A4301E022F040528A6001688A6822F0C3
:1005000002028A6001688A68037E42EA43028A60C6
:1005100090F82010002901684A680FD042F4006268
:100520004A6001684A6822F460424A6001684A6889
:10053000174C436A04EB43331A4301E022F4006290
:100540004A600168CA6A22F47002CA620168CA6A13
:10055000838B104C04EB03531A43CA6201688A6808
:1005600022F400728A6001688A6890F8303042EAAA
:1005700043228A6001688A6822F480628A60016886
:100580008A68406942EA8020886010BD00230140EB
:1005900000E0FFFF0000F0FFFEE70000014800F070
:1005A000DBBA00006C00002001681823CAB2103AC0
:1005B000B2FBF3F2054B6FF30901032A9B5CC365A1
:1005C00000D9091D8165084670470000F02E00081B
:1005D00010B5014600208B698A6A4FF0C07453B190
:1005E000B3F5005F15D072B1012A0CD0022A0AD0EF
:1005F000032A09D104E01AB1012A06D0022A03D144
:10060000C96AC90100D5012010BDC96AA142FAD04A
:1006100010BD002AF7D0012AF2D0022AF3D0032A13
:10062000F3D010BD30B50468256825F48025256019
:10063000046863608368402B036803D09960006896
:10064000C26030BD9A600068C16030BD70477047BD
:100650007047000078B50024009490F83C20012AEF
:1006600019D0012280F83C200A6807230568092A6E
:1006700013D9EE680A3A02EB420293409E43EE60C1
:100680000B788A680A3B03EB43039A400368DD68F2
:100690002A43DA6010E0022078BD2E6902EB4202A4
:1006A00093409E432E610B788A6803EB43039A4084
:1006B00003681D692A431A614A681F23072A13D257
:1006C00005686E6B521E02EB820293409E436E637E
:1006D0000B790A885B1E92B203EB83039A4003688E
:1006E0005D6B2A435A6327E005680D2A12D22E6BF0
:1006F000D21F02EB820293409E432E630B790A883D
:10070000DB1F92B203EB83039A4003681D6B2A43FD
:100710001A6311E0EE6A0D3A02EB820293409E43A7
:10072000EE620B790A880D3B92B203EB83039A4089
:100730000368DD6A2A43DA62164B0568144A9D4253
:1007400006D10D68122D03D1556845F4800555601A
:1007500005689D4218D10B68102B01D0112B13D1C5
:10076000536843F400035360096810290CD10A4907
:100770000A4A0968B1FBF2F101EB8101490000E08E
:10078000491E00910029FBD180F83C40002078BD33
:1007900000230140002001400C00002040420F00D7
:1007A00070477047704770B504460068016842683A
:1007B000C1F34001C2F3401251B34AB3216CC906E0
:1007C00003D4216C41F400712164816811F0405F11
:1007D00017D1217EA9B9C16A11F4700F02D08168C6
:1007E00049050ED4416821F020014160206C20F4BD
:1007F00080702064206CC00403D4206C40F00100A1
:1008000020642046FFF7CCFF21686FF012000860DB
:10081000206801684268C1F38001C2F3C01289B345
:1008200082B3216CC90603D4216C41F400512164C8
:10083000816811F4401F1ED1816B11F4401F02D05A
:100840008168490517D44168490514D4816811F0BD
:10085000405F10D1217E71B9416821F08001416073
:10086000206C20F480502064206CC00503D4206CE0
:1008700040F0010020642046FFF7EAFE21686FF097
:100880000C00086020680168426811F0010FC2F393
:1008900080120ED06AB10068C0070AD0206C40F404
:1008A00080302064204600F046F821686FF0010097
:1008B0000860206801684268C1F34011C2F3806299
:1008C00000290DD0002A0BD0616C41F00201616457
:1008D0006FF0200505602046FFF764FF2068056083
:1008E00070BD70B504004FF0000503D0206C0026E9
:1008F00010B107E0012070BD204600F01DF86664CD
:1009000084F83C60206CC00610D4206C20F4885021
:1009100040F0020020642046FFF7AAFD6664206CC8
:1009200020F0020040F00100206400E0012584F87E
:100930003C60284670BD7047F0B587B0064614216C
:100940006846FFF70BFD3149306888425CD130487A
:100950000025016841F48071016000682C4900F4B1
:10096000807014390590086840F004000860086839
:1009700000F004000590086840F001000860086875
:1009800000F001000590086840F002000860086867
:10099000022700F0020000970590032469461D48D5
:1009A000CDE9014500F04AFA5F208DE83100694643
:1009B000194800F043FA009769461848CDE9014507
:1009C00000F03CFA174C1648C4E900050015A56074
:1009D000C4E90350400060618000A0614011E06103
:1009E0004FF44030C4E90805204600F085F908B10D
:1009F000FFF72DFEB463002211461220A66300F01B
:100A00006DFB122000F05CFB07B0F0BD0020014040
:100A10004438024000080240000002400004024046
:100A2000106402406C000020F8B50E460021044618
:100A3000009190F83C00012807D0012084F83C0088
:100A400020688368DB0702D011E00220F8BD8368CC
:100A500043F0010383603748374B0068B0FBF3F085
:100A600000EB400000E0401E00900028FBD1206811
:100A70008368DB075CD0236C40F20165AB4343F431
:100A8000807323644068400505D5206C20F4005035
:100A900040F480502064206CC00404D5606C20F0C9
:100AA0000600606400E0616484F83C10A16B244897
:100AB000224DC863A16B23480864A16B2248C86417
:100AC00021686FF0220008602068416841F0806171
:100AD00041602068816841F480718160216813461B
:100AE00032464C31A06B00F071F968681749C006B6
:100AF000206806D088421BD1816811F0405F13D076
:100B000016E08842F8D0124A904203D1D1F804236B
:100B1000D206F1D00F4A90420AD1D1F8041301F065
:100B20001F011029E8D303E0816841F08041816012
:100B30000020F8BD0C00002040420F0000230140BF
:100B4000D5030008590400084304000800200140B0
:100B500000210140002201402DE9F84304464FF0F6
:100B60000009CDF8009063484FF41651A56D006858
:100B7000B0FBF1F72E6894F85C10082000FA01F140
:100B800031420FD021680A6852070BD50A6822F05B
:100B900004020A6094F85C108840A860606D40F020
:100BA0000100606594F85C104FF0010808FA01F04C
:100BB000304208D021684969090604D5A860606DF3
:100BC00040F00200606594F85C10042088403042D8
:100BD00008D021680968890704D5A860606D40F0D5
:100BE0000400606594F85C1010208840304218D0F2
:100BF00021680968090714D5A860206801684903BD
:100C000004D50068000308D5A16C07E00168C90598
:100C100003D4016821F008010160216C09B120466C
:100C2000884794F85C1020208840304231D02168F9
:100C30000968C9062DD5A86094F8350005282068F4
:100C4000016806D0490347D5006800031DD4616CD4
:100C50001CE021F0160101602068416921F080014B
:100C60004161206C08B9A06C20B12068016821F0B6
:100C70000801016094F85C103F208840A86084F867
:100C8000349084F83580216D1FE0E16B09B1204676
:100C90008847606D00282BD0606DC00714D00520F8
:100CA00084F835002068016821F001010160009896
:100CB000401C0090B84203D820680068C007F6D1F5
:100CC00084F8349084F83580E16C002910D001B0AC
:100CD0002046BDE8F04308470168C905D5D401683E
:100CE00021F01001016084F8349084F83580CCE75D
:100CF000BDE8F8830C0000202DE9F041044600F027
:100D00007FF906465CB1002584F83450022084F84F
:100D100035002068016821F0010101600DE001202B
:100D2000BDE8F08100F06CF9801B052805D9202072
:100D30006065032084F83500F2E720680068C0078A
:100D4000F0D12268116820480140D4E9010318431A
:100D5000D4E903363343184363691843A36918433E
:100D6000E3691843236A18430843616A042903D1DD
:100D7000D4E90B1319430843106020684069666A80
:100D800020F0070130460E43012704280CD1A06A49
:100D90000643E06A40B12046FFF71AFC20B140202C
:100DA000606584F83570BAE7206846612046FFF731
:100DB000FBFB94F85C203F2191408160656584F8DD
:100DC00035700020ACE700003F8010F02DE9F041C5
:100DD0000446866D90F83400002501280DD00120CE
:100DE00084F8340094F835700020012F07D084F87F
:100DF000340002252846BDE8F0810220FBE70227E7
:100E000084F8357060652046FFF70CFC94F85C10A0
:100E10003F208840B0602068016841F01601016001
:100E2000206C20B12068016841F008010160206851
:100E3000016841F001010160DCE700002DE9F84F95
:100E400000224FF0010803254FF00F0E0B6808FA3F
:100E500002F42340A3426ED14E68012E05D0022E2B
:100E600003D0112E01D0122E12D186684FEA420C07
:100E700005FA0CF7BE43CF6807FA0CF737438760D3
:100E80004668A6430C79C4F300149440344344608C
:100E9000C668570005FA07FC8C6826EA0C06BC40B9
:100EA0003443C4604C68022C01D0122C13D1D408F6
:100EB00000EB8404A346D4F8209054074FEAD46A88
:100EC0000EFA0AF629EA06090E6906FA0AF646EA51
:100ED0000906CBF8206006680C7926EA0C0604F0B7
:100EE0000304BC40344304604C68E40065D5364CD0
:100EF000266846F480462660246822F0030604F43F
:100F000080440094314C3444A446D4F808489607F1
:100F1000370F0EFA07F6B4432D4EB04201D100262A
:100F200024E02C4EB04201D101261FE02A4EB042EF
:100F300002D102261AE040E0284EB04201D1032639
:100F400014E0274EB04201D104260FE0254EB042F6
:100F500001D105260AE0244EB04201D1062605E063
:100F6000224EB04201D1072600E00826BE402643AB
:100F7000CCF808681E4E34684F689C43FF0300D5C8
:100F80001C4334601A4C241D26684F689E43BF03DF
:100F900000D51E432660164E083634684F689C43C1
:100FA000FF0200D51C433460114E0C3634684F6884
:100FB0009C43BF0200D51C433460521C102AFFF42E
:100FC00045AFBDE8F88F00004438024000300140D2
:100FD000000002400004024000080240000C0240F1
:100FE000001002400014024000180240001C0240A1
:100FF000003C01400AB1816170470904FBE7000031
:1010000001488068704700000000002002488168A5
:101010000278114481607047000000200B4810B531
:10102000016841F400710160016841F48061016070
:10103000016841F480710160032000F06FF8002026
:1010400000F006F800F024F8002010BD003C02403B
:1010500070B50D4D04464FF47A712878B1FBF0F06D
:101060000A490968B1FBF0F000F0E2FA48B9102C27
:1010700007D200222146501E00F030F800206C609C
:1010800070BD012070BD0000000000200C00002099
:101090000A4808B5016841F480410160006800F425
:1010A000804000900548001F016841F080510160B8
:1010B000006800F08050009008BD000044380240F5
:1010C000002809DB00F01F02012191404009800047
:1010D00000F1E020C0F8001170470000F0B40E4BA2
:1010E0001B680C46C3F30223C3F10705042D00D986
:1010F0000425191D072901D2002300E0DB1E01266B
:1011000006FA05F1491E214099409E40761E164080
:101110003143F0BC01F0DFBB0CED00E0064900F00C
:10112000070208684FF6FF03184040EA0220034A0E
:1011300010430860704700000CED00E00000FA0565
:101140002DE9F0470E46050065D0DFF81481D8F888
:101150000000F7B200F00F00B04207D288F800702C
:10116000D8F8000000F00F00B04254D128683D4C80
:10117000810712D5400703D5206840F4E050206075
:101180002878000703D5206840F46040206020687C
:10119000A96820F0F000084320602878C0072DD00F
:1011A000304968680839012812D0022813D0032872
:1011B00011D00968890700292DDA216821F003017F
:1011C00001432160FFF71CFF814641F2883A0EE09F
:1011D00009688903EFE709688901ECE7FFF710FF69
:1011E000A0EB0901514502D90320BDE8F087206832
:1011F000696800F00C00B0EB810FEFD1D8F8001057
:10120000404601F00F01B14207D90770006800F0B5
:101210000F00B04201D00120E7E72878400705D54C
:101220002068E96820F4E05008432060287800072F
:1012300006D52068296920F4604040EAC10020609A
:1012400000F018F82168084AC1F30311515CC84046
:101250000649086006480068FFF7FAFE0020C4E768
:10126000003C024008380240F82E00080C00002024
:1012700004000020154810B5006810F00C02144856
:1012800013D04110042A0FD0082A0ED10F4C241F6E
:101290002268236802F03F025B0207D52068C0F392
:1012A0008810A0FB010106E0084610BD2168C1F3CB
:1012B0008811A1FB00010023FFF718F82168C1F392
:1012C0000141491C4900B0FBF1F010BD0838024053
:1012D0000024F4002DE9F84F04006ED02078DFF8E8
:1012E0003C93C007A9F104054AD009F10400016844
:1012F000C1F38101012908D00068C0F381000228F0
:101300000AD1D9F80000400206D52868800337D5F5
:1013100060680028E1D033E06068B0F5803F10D00D
:10132000B0F5A02F286810D020F4803028602868FD
:1013300020F4802028606068A8B1FFF761FE0646AF
:101340000DE0286840F48030F4E740F48020286005
:10135000F7E700BFFFF754FE801B642873D82868A6
:101360008003F7D50CE0FFF74BFE064605E000BF13
:10137000FFF746FE801B6428F0D828688003F7D466
:101380002078DFF89C8280074FF0000A3ED5A34802
:10139000001D016811F00C0F08D00068C0F3810037
:1013A00002280BD1D9F80000400207D42868800732
:1013B00016D5E068012800D112E02BE1E068B8B151
:1013C0000120C8F80000FFF71BFE064605E000BF3D
:1013D000FFF716FE801B0228C0D828688007F7D5C3
:1013E0002868216920F0F80040EAC10028600DE07B
:1013F000C8F800A0FFF704FE064604E0FFF700FE71
:10140000801B02281FD828688007F7D4207800079F
:1014100022D5824E83486169703671B10121016025
:10142000FFF7EEFD074604E0FFF7EAFDC01B0228C8
:1014300009D830688007F7D50EE0C0F800A0FFF7A4
:10144000DFFD074605E082E0FFF7DAFDC01B02285A
:101450007DD830688007F7D42078400768D5DFF85A
:10146000BCB100270BF13C0BDBF80000C0000BD433
:10147000DBF8001041F08051CBF80010DBF80000E1
:10148000012700F080500090674E3068C00510D4EE
:10149000306840F480703060FFF7B2FD009005E0E6
:1014A000FFF7AEFD0099401A022850D83068C005F9
:1014B000F6D55A4EA0686C3601280FD00528306842
:1014C00010D020F001003060306820F0040030605F
:1014D000A068B8B1FFF794FD00900FE0306840F0CD
:1014E0000100F4E740F004003060F7E7FFF788FD03
:1014F0000099411A41F28830814266D830688007ED
:10150000F4D50EE0FFF77CFD009007E0FFF778FDD3
:101510000099411A41F28830814256D830688007DC
:10152000F4D42FB1DBF8001021F08051CBF800107B
:10153000A069C8B33949091D0968C1F381010229AD
:101540004AD00228504607D0C8F8600000E03CE0CE
:10155000FFF756FD04463BE04746C8F86000FFF73A
:101560004FFD064605E000BFFFF74AFD801B02283D
:101570002BD828688001F7D4D4E907010843A16A71
:101580002A4A490802EB0141626A41EA8211084392
:1015900094F82C1040EA0161C9F800100120386667
:1015A000FFF72EFD044606E036E000BFFFF728FDFA
:1015B000001B022809D828688001F7D52CE000BF5D
:1015C000FFF71EFD001B022802D90320BDE8F88F9B
:1015D00028688001F4D41FE00128F7D0D9F8000072
:1015E000E26900F48001914214D1226A00F03F01C7
:1015F00091420FD147F6C071626A0140914209D110
:10160000A26A00F44031914204D1E16A00F07060B6
:10161000884201D00120D9E70020D7E704380240F2
:1016200000004742800E4742007000400000FFFF6C
:1016300010B5401EB0F1807F01D3012010BD4FF0E6
:10164000E02460610F21601701F045F90020A061DE
:1016500007202061002010BD7047704710B590F83A
:101660003C20012A22D0012280F83C20CA688C68E4
:1016700022F4407222434C6822F4806222430C68B8
:1016800022F4006222430C6922F4805222434C6906
:1016900022F400522243C969002322F480420A4303
:1016A00001684A6480F83C30002010BD022010BD63
:1016B00070B590F83C20012A32D0012480F83C40DB
:1016C000022280F83D2003685A689D6822F0700667
:1016D0000A6832435A60134B02689A4214D0B2F13E
:1016E000804F11D0104B9A420ED0104B9A420BD023
:1016F0000F4B9A4208D00F4B9A4205D00E4B9A429C
:1017000002D00E4B9A4204D1496825F08003194358
:10171000916080F83D40002180F83C10084670BD83
:10172000022070BD0000014000040040000800409D
:10173000000C00400004014000400140001800403F
:1017400010B504460068042200F0ADFF2068416C2B
:1017500041F4004141642068816801F007010629D5
:1017600003D0016841F001010160002010BD10B5F7
:10177000040003D094F83D0010B107E0012010BD33
:10178000002084F83C00204600F00CF8022084F889
:101790003D00211D206800F015FF012084F83D0068
:1017A000002010BD08B500680B49884212D10B48D3
:1017B000016841F0010101600068002200F00100B1
:1017C000009001211920FFF789FCBDE8084019208D
:1017D000FFF776BC08BD000000000140443802401D
:1017E0000168CA6842F00102CA600068816801F0BD
:1017F0000701062903D0016841F0010101600020C2
:10180000704770B5044690F83C00012817D00125B8
:1018100084F83C50022084F83D002068826822F061
:10182000770222F47F4282600868502830D00DDCB5
:1018300020284DD005DC98B310283BD148E0022089
:1018400070BD302844D0402834D139E0602828D0F9
:10185000702806D0B0F5805F2CD0B0F5005F29D19C
:101860000AE0CB68D1E90121206800F029FF206857
:10187000816841F0770109E0CB68D1E90121206856
:1018800000F01EFF2068816841F48041816011E012
:10189000CA684968206800F0E7FF5021206807E027
:1018A00016E0CA684968206800F0EFFF60212068F0
:1018B00000F010FF84F83D50002084F83C0070BD1B
:1018C000CA684968206800F0CFFF40212068EFE730
:1018D000226801461046EBE7704770B50446006881
:1018E00001694FF00005C943890715D4C168C94390
:1018F000890711D4E91E01610120207720688069E1
:101900008007204602D0FFF7E7FF04E000F016F959
:10191000204600F0B5F9257720680169C9434907D9
:1019200017D4C168C943490713D46FF0040101619A
:10193000022020772068806910F4407F204602D082
:10194000FFF7CAFF04E000F0F9F8204600F098F92C
:10195000257720680169C943090716D4C168C943BE
:10196000090712D46FF00801016104202077206874
:10197000C0698007204602D0FFF7AEFF04E000F008
:10198000DDF8204600F07CF9257720680169C9431D
:10199000C90617D4C168C943C90613D46FF0100132
:1019A0000161082020772068C06910F4407F20463C
:1019B00002D0FFF791FF04E000F0C0F8204600F0ED
:1019C0005FF9257720680169C943C90708D1C16853
:1019D000C943C90704D1891E0161204600F074F98A
:1019E00020680169C943090609D4C168C9430906C9
:1019F00005D46FF0800101612046FFF72DFE2068BD
:101A00000169C943490609D4C168C943490605D4D7
:101A10006FF040010161204600F07EFA2068016904
:101A2000C94389060BD4C168C943890607D46FF03E
:101A3000200101612046BDE87040FFF70EBE70BD79
:101A400070B586B0044614216846FEF787FC344B17
:101A5000226800243349022533489A4222D10A6879
:101A600042F001020A600A6802F0010205920A6867
:101A700042F010020A60096802AA01F01001059103
:101A80008021CDE90015012682E870006946FFF744
:101A9000D5F92802CDE9000502AA694682E870005E
:101AA000224838E0224B9A4237D10A6842F00102BC
:101AB0000A600A6802F0010205920A6842F0020216
:101AC0000A600A6802F0020205920A6842F0040203
:101AD0000A600968032601F00401059120210091A4
:101AE000CDE90154CDE903466946FFF7A7F948F26D
:101AF00001000090CDE90154CDE9034669460D4847
:101B0000FFF79CF94FF4E0700090CDE90154CDE966
:101B1000034669460848FFF791F906B070BD00001A
:101B20000000014030380240000002400010024036
:101B3000000401400004024000080240704770B5F4
:101B4000044690F83C000D4601280DD0012684F88B
:101B50003C60022084F83D0042B1042A18D0082AD3
:101B60002AD00C2A4DD139E0022070BD206800F047
:101B7000B9FD2068816941F00801816120688169AF
:101B800021F004018161206881692A69114311E013
:101B9000206800F0D7FD2068816941F4006181610F
:101BA0002068816921F480618161206881692A69E6
:101BB00041EA0221816124E0206800F0F9FD2068FB
:101BC000C16941F00801C1612068C16921F00401C7
:101BD000C1612068C1692A69114311E0206800F0E1
:101BE0001BFE2068C16941F40061C1612068C169C0
:101BF00021F48061C1612068C1692A6941EA02213A
:101C0000C16184F83D60002084F83C0070BD10B5CF
:101C1000040003D094F83D0010B107E0012010BD8E
:101C2000002084F83C00204600F00CF8022084F8E4
:101C30003D00211D206800F0C5FC012084F83D0016
:101C4000002010BD08B500680B49884212D10B482E
:101C5000016841F0020101600068002200F002000A
:101C6000009001212C20FFF739FABDE808402C2014
:101C7000FFF726BA08BD00000004014044380240C6
:101C80007047000010B504460068012200F0FEFC19
:101C90000B492068884202D00A49884203D1416C2E
:101CA00041F4004141642068816801F00701062980
:101CB00003D0016841F001010160002010BD000067
:101CC000000001400004014070B58B492DED068BEA
:101CD000884276D1894C208800F01CFFA4F5A472BC
:101CE0001060608800F016FF5060A08800F012FFBE
:101CF00090601168A1F2457100EE101AB8EEC00AAA
:101D0000DFED7F9A20EE290ADFED7E8A20EE280A99
:101D10009FED7D9A04F11006A0F24570C0EE090A0D
:101D2000C6ED000A5168A1F2457100EE101AB8EE36
:101D3000C00A20EE290A20EE280AC0EE090A00EEA9
:101D4000100A3046B8EEC00A20EE290A20EE280A12
:101D5000C6ED010AC0EE090AC6ED020A00F098FEBF
:101D6000D6ED030A04F14005C5ED000A96ED041A0C
:101D700085ED011A9FED65AA9FED658AF5EEC00A13
:101D8000F1EE10FA08DD81EE200A00F0B5FDC0EE9C
:101D90000A0A20EE880A29E0F5EEC00AF1EE10FAF0
:101DA00010D2B5EEC01AF1EE10FA0BDD81EE200A6A
:101DB00000F0A2FDC0EE0A0AB0EE480A00EE880A62
:101DC00014E095E0F5EEC00AF1EE10FA10D2B5EE8F
:101DD000C01AF1EE10FA0BD281EE200A00F08CFD51
:101DE000C0EE0A0AB0EE480A10EE880A85ED020A33
:101DF00095ED020A414D583505F1180685ED020AA8
:101E000086ED020AE08800F085FEA5F5CA72106032
:101E1000A08900F07FFE5060608900F07BFE90603A
:101E20001168A5F13004A1F2457100EE101AA0F27C
:101E30004570B8EEC00A20EE290A20EE280AC0EE4E
:101E4000090AC4ED000A5168A1F2457100EE101AAA
:101E5000B8EEC00A20EE290A20EE280AC0EE090AD0
:101E600000EE100A2046B8EEC00A20EE290A20EE45
:101E7000280AC4ED010AC0EE090AC4ED020A00F006
:101E800007FE94ED030A284685ED000A94ED040A46
:101E900085ED010A00F080FE1E4C95ED030AA5F5C4
:101EA0009E70D4ED000A00F0F5F986ED030A95ED79
:101EB000040AD4ED010AA5F1A40000F0EBF986EDC7
:101EC000040A304600F004FE96ED000A05F13000E9
:101ED00080ED000A96ED010A80ED010A00F0C0FED7
:101EE000BDEC068B05F13000BDE8704000F0DEBAB5
:101EF000BDEC068B70BD0000CC00002094020020D9
:101F0000333353400000104200F07F45DB0F49405F
:101F100000003443100000207047FEE77FB5002525
:101F200039480095019502953649039501600124D1
:101F30004FF480310461C0E90115047680F8205027
:101F40003249C0E90A150826C661C56080F83040EC
:101F50004461FEF7C6FC08B1FEF779FBCDE90054F9
:101F6000694629480294FEF775FB08B1FEF76FFB3E
:101F700000940224694624480194FEF76BFB08B1E3
:101F8000FEF765FB0094032469461F480194FEF7A1
:101F900061FB08B1FEF75BFB0094042469461A4814
:101FA0000194FEF757FB08B1FEF751FB0520CDE980
:101FB000004069461448FEF74DFB08B1FEF747FBA9
:101FC00006200090019069460F48FEF743FB08B1D8
:101FD000FEF73DFB092000900720019069460A4862
:101FE000FEF738FB08B1FEF732FB0B20CDE9000607
:101FF00069460548FEF72EFB002801D0FEF727FBB7
:102000007FBD000000200140240000200100000FDF
:10201000094808B5016841F48001016000680022A8
:1020200000F48000009011463820FFF757F8BDE813
:1020300008403820FFF744B8303802402DE9F0411D
:1020400086B014216846FEF789F92A480024016801
:1020500041F080010160016801F080010591016893
:1020600041F004010160016801F00401059101687B
:1020700041F001010160016801F001010591016871
:1020800041F002010160016801F00201059101685F
:1020900041F010010160016801F010010591016833
:1020A00041F0080101600068134F00F0080005903E
:1020B000002201213846FEF79DFFDFF840804FF4F3
:1020C0004066002231464046FEF794FF0125009508
:1020D000CDE90154694638460394FEF7AFFE0096F9
:1020E000CDE90154694640460394FEF7A7FE06B0C9
:1020F000BDE8F0813038024000080240000C024088
:1021000010B596B000240F94109411941294139467
:102110001C2108A81494FEF721F920216846FEF737
:102120001DF929482749C0E900142021816042F2A5
:10213000CF01C0E903148021C0E90541FFF717FB77
:1021400008B1FEF784FA4FF480500F900FA91E4893
:10215000FFF757FB08B1FEF77AFA1B48FFF757FD68
:1021600008B1FEF774FA139413A917481494FFF7F3
:102170009FFA08B1FEF76BFA6020CDE908040A94D3
:102180000B940C940D94002208A90F480E94FFF7AD
:10219000D6FC08B1FEF75BFA6420CDE9024000945A
:1021A0004FF40050CDE90440019469460648079475
:1021B000FFF754FA08B1FEF74AFA0348FFF740FC6C
:1021C00016B010BD00000140CC00002010B592B048
:1021D00000240F941C2168461094FEF7BFF82021BC
:1021E00007A8FEF7BBF829482749C0E900142021B9
:1021F000816042F2CF01C0E903148021C0E90541AA
:10220000FFF705FD08B1FEF722FA0F940FA91F484A
:102210001094FFF74DFA08B1FEF719FA6020CDE9E6
:10222000000402940394049405940022694617481C
:102230000694FFF784FC08B1FEF709FA0422694608
:102240001248FFF77CFC08B1FEF701FA0822694644
:102250000E48FFF774FC08B1FEF7F9F90794642003
:102260000894CDE909404FF40050CDE90B4007A98F
:1022700006480E94FFF7F2F908B1FEF7E8F90348B3
:10228000FFF7DEFB12B010BD000401400C0100207E
:10229000FEE77047B8B1D0ED111AC0ED121A90EDFB
:1022A000101A80ED111AC0ED060A80ED070A30EE13
:1022B000C00A80ED100AB5EEC00AF1EE10FA05DD95
:1022C000F0EE400A04E09FED450A7047F1EE400A47
:1022D00090ED082AF4EEC20AF1EE10FA7ADD0178E8
:1022E00011B1012938D075E0D0ED010A60EE801AF5
:1022F000C0ED0A1AD0ED0B0A90ED022A42EE000A58
:1023000030EE410AC0ED0B0A90ED0E2A80ED0F2A47
:1023100090ED0D2A80ED0E2A80ED0D0A90ED031A46
:1023200021EE001A80ED0C1A90ED050AF4EEC00AB9
:10233000F1EE10FA09DCB1EE400AF4EEC00AF1EE5B
:1023400010FA02D390ED0B0A01E080ED0B0A31EE9A
:10235000800A30EE010A2BE070EE410A90ED012A6E
:1023600060EE820AC0ED0A0A90ED022A22EE002AEF
:1023700080ED0B2AD0ED0E2A70EE820AC0ED0F2AF6
:10238000D0ED0D2AC0ED0E2AF0EE002A01EE620A11
:1023900030EE210A80ED0D0A90ED031A21EE000ABD
:1023A00080ED0C0A30EE800AD0ED090A30EE200AEA
:1023B00080ED090AD0ED040AB4EEE00AF1EE10FA5D
:1023C00006DCF1EE600AB4EEE00AF1EE10FA01D29A
:1023D000C0ED090A90ED090A7047000000000000F6
:1023E00000282AD0002A28D00170D2ED001AC0EDB2
:1023F000011AD2ED011AC0ED021AD2ED021AC0ED97
:10240000031A80ED081A80ED040A9FED0C0AC0ED56
:10241000050A80ED0F0A80ED0E0A80ED0D0A80EDB1
:10242000090A80ED0C0A80ED0B0A80ED0A0A80EDA6
:10243000120A80ED110A80ED100A704700000000BA
:102440007047704710B51548FFF7CAF900211348C7
:10245000FFF718FC00211148FFF772F9042110481A
:10246000FFF710FC04210E48FFF76AF900210C4821
:10247000FFF708FC00210A48FFF762F90821084825
:10248000FFF700FC08210648FFF75AF9BDE81040A5
:10249000082204490448FEF7C7BA0000CC00002017
:1024A0000C01002094020020240000201349D0EDEC
:1024B000050A134A91ED020AB8EEC01A60EE810ACD
:1024C000FCEEE00A10EE901A1160B8EEC01AD0EDE2
:1024D000060A121D60EE810AFCEEE00A10EE901A68
:1024E0001160B8EEC00AD0ED070A064920EE800A56
:1024F000BCEEC00A10EE100A4863704710000020BE
:102500003404014000000140FEF780BD30B593B0B7
:1025100030216846FDF722FF14210CA8FDF71EFFAD
:1025200019480025016841F080510160006800F001
:10253000805011901548016841F4804101600068A5
:10254000022400F4804011900120009000040190CA
:102550008001CDE9064008AA0420A82182E81300E2
:102560000B906846FEF7B6FE0CA90F2081E83100FB
:102570004FF4A0500F90E002109005210CA8FEF738
:10258000DFFD13B030BD0000403802400070004055
:102590000548016841F47001016003494FF0006093
:1025A000803908607047000088ED00E00148FFF7BF
:1025B00094B90000CC0000200148FFF78EB900005C
:1025C0000C010020F0B50268254C264D264E274F01
:1025D000274B4FF0804CA04209D0604507D0A8425D
:1025E00005D0B04203D0B84201D0984204D122F0C5
:1025F000700E4A6842EA0E02A0421BD0604519D014
:10260000A84217D0B04215D0B84213D0984211D08A
:10261000184DA8420ED0184DA8420BD0174DA84215
:1026200008D0174DA84205D0164DA84202D0164D2D
:10263000A84203D122F44075CA682A434D6922F0AA
:1026400080022A4302608A68C2620A688262A042EB
:1026500001D0984201D10969016301214161F0BDB6
:10266000000001400004004000080040000C004051
:102670000004014000400140004401400048014086
:1026800000180040001C00400020004010B501F080
:102690001F030121046A99408C430462016A9A4035
:1026A0001143016210BD10B501F01F030421046A3B
:1026B00099408C430462016A9A401143016210BD43
:1026C00010B5846842EA032224F47F440A4322437B
:1026D000826010BD826822F070020A4342F0070156
:1026E00081607047F0B5026A22F001020262036A5B
:1026F00042688469124E24F073050C682C4323F061
:1027000002058B682B430D4DA84201D0B04205D184
:1027100023F00807CB683B4323F00403A84201D011
:10272000B04205D14D6922F4407215438A692A43AB
:1027300042608461496841630362F0BD000001406A
:1027400000040140F0B5026A22F010020262026A3F
:10275000436884690D6824F4E64444EA05248D68DE
:1027600022F0200242EA05120F4D104EA84201D07D
:10277000B04206D1CF6822F0800242EA071222F06E
:102780004002A84201D0B04207D14D6923F4406312
:1027900043EA85038D6943EA8503436084614968A0
:1027A00081630262F0BD00000000014000040140AE
:1027B000F0B5026A22F480720262026A4368C46958
:1027C00022F4007224F073050C68124E2C438D68BD
:1027D00042EA05220E4DA84201D0B04206D1CF6890
:1027E00022F4006242EA072222F48062A84201D069
:1027F000B04207D14D6923F4405343EA05138D6974
:1028000043EA05134360C4614968C1630262F0BDD5
:10281000000001400004014030B5026A22F48052F9
:102820000262046A4268C3690D6823F4E64343EA1E
:1028300005238D6824F4005444EA0534084DA84269
:1028400002D0084DA84204D14D6922F4804242EAE8
:1028500085124260C36149680164046230BD0000B2
:10286000000001400004014010B5036A046A24F02E
:1028700001040462846924F0F00444EA021423F0A1
:102880000A020A438461026210BD10B5036A23F094
:10289000100303628369046A23F4704343EA02323B
:1028A00024F0A00343EA01118261016210BDFEE73A
:1028B0004100080218BF04200A0E18BF40F00100B2
:1028C0004FF07F4232EA010108BF40F002000128C8
:1028D00008BF052070470907090E002804DB00F136
:1028E000E02080F80014704700F00F0000F1E020B5
:1028F00080F8141D7047000010B54FF00E412DED0B
:10290000028BB0EE408A18EE100A01EB4001B1F1E3
:10291000145F5CD24FF0FE41B1EB400F24BF9FED3E
:10292000400AF0EE400A12D210F0004F19BFDFED5E
:102930003D0A9FED3D0ADFED3D0A9FED3D0AFFEEAA
:10294000001A81EE881AB0EE418A18EE100A4FF094
:10295000FC41B1EB400F1BD210F0004FDFED351AF8
:102960009FED352A1DBFBEEE001A70EEE10A30EE73
:10297000420AB6EE001A04BF70EEA10A30EE020A57
:1029800038EE412AF7EE001A48EE011A82EE218A4B
:10299000DFED2A1A9FED2A2A28EE081A01EE212AD5
:1029A000DFED281A41EE021A9FED272A01EE212AB7
:1029B000DFED261A41EE021A28EE011A01EE210A75
:1029C00030EE080ABDEC028B30EE200A10BD4FF04D
:1029D000E441B1EB400F0CD918EE100AFFF768FF85
:1029E000042808BF00F03CF8B0EE480ABDEC028BAA
:1029F00010BD4FF07F41B1EB400F07D2B0EE480A57
:102A0000BDEC028BBDE8104000F026B810F0004F7E
:102A100014BF9FED0F0A9FED0F0ABDEC028B10BD96
:102A2000000000000000C9BF22AAFDB90000C93F94
:102A300022AAFD390060ED3EC30ACE372DAD65BD3B
:102A40008FB8D53D0FB511BE61C84C3EA8AAAABE2D
:102A5000DB0FC9BFDB0FC93F30EE000A7047000033
:102A60009FED020A20EE000A7047000000000010EF
:102A700002E008C8121F08C1002AFAD17047704747
:102A8000002001E001C1121F002AFBD170470000A5
:102A9000D0ED000A90ED010AB6EE001AD0ED021A50
:102AA00040EE410A30EE610A41EEC10A9FED061A7E
:102AB00060EE810AC0ED030ADFED040A20EE200A71
:102AC00080ED040A70470000ABAA2A3F3ACD133FBD
:102AD0001CB5044690ED020A694601A8FDF770FB9B
:102AE00094ED030ADDED000ADDED011A20EE201A57
:102AF000D4ED040A00EEE11A84ED001A9DED001AEF
:102B000060EE810A9DED011A40EE010AC4ED010A52
:102B10001CBD000000EE900A9FED0A0A0B49F8EE7A
:102B2000E00A9FED091A20EE800AD1ED040AF8EEC2
:102B3000E00A01EE200ABDEEC00A10EE100A08619C
:102B4000704700006666663FD0CCCC3D1000002088
:102B5000FEF764FAFFF7DAFCFFF770FAFFF758FAAE
:102B6000FFF7CEFAFFF7DAF9FFF730FBFFF76AFC61
:102B700000F030F806489FED050A80ED030A05488D
:102B8000B6EE000A80ED030AFEE70000CDCCCC3E95
:102B900044030020040300201CB5044690ED020A03
:102BA000694601A8FDF70CFB94ED001ADDED000A63
:102BB00094ED010ADDED011A21EE202A00EE212A12
:102BC00020EE200A01EE610A84ED032A84ED040A56
:102BD0001CBD000010B5204A01212DED028B9FED98
:102BE0001C8ADFED1C8A1D48B0EE481AF0EE480A38
:102BF000B0EE680AFFF7F4FB174A1848B0EE481A1F
:102C0000F0EE480AB0EE680A0C3201219838FFF75E
:102C1000E7FB114A1148B0EE481AF0EE480AB0EE50
:102C2000680A183201214C38FFF7DAFBB0EE481A77
:102C3000F0EE480AB0EE680A074A08482432BDECB4
:102C4000028B0121BDE810404C30FFF7C9BB0000EA
:102C5000000000009A99593F082F0008FC0100204D
:102C60002DED0E8B0021BEEE001A9D4AD0ED000A1C
:102C700002F1500392EC04CA93EC042A103B93EC4B
:102C8000044A103B93EC046A103B93EC048A103B1B
:102C900093EC04AAC0ED030A90ED010A80ED040A4A
:102CA00020EE011AF0EE411A9FED8EEAB5EEC00A51
:102CB00000EE8E1AF0EE41EAB0EE611A00EECE1A86
:102CC000F1EE10FA00DD0121F5EEC0EAF1EE10FAA6
:102CD00000DD891CB5EEC01AF1EE10FA00DD091D09
:102CE000F6EE001AC9B3804A9FED801AB7EE00EAEB
:102CF00001293AD002295BD003297FD004297BD057
:102D000005297AD0062925D124EE202A65EE200A4D
:102D100004EE802A45EE800A32EE200A10EE101AE8
:102D2000914207DD62EE012A20EE811A82EE802AAE
:102D3000C1EE000A3EEE420A30EE600A20EE210AA1
:102D400080ED070A30EE020A80ED050A30EE200A17
:102D500080ED060ABDEC0E8B7047FFE7C0ED051A4B
:102D6000C0ED061AC0ED071AF4E72AEE202A6BEE32
:102D7000200A0AEE802A4BEE800A32EE200A10EE7C
:102D8000101A914207DD62EE012A20EE811A82EECE
:102D9000802AC1EE000A3EEE420A30EE600A20EEC2
:102DA000210A80ED060A30EE020A80ED050A47E0AE
:102DB00022EE202A63EE200A02EE802A43EE800AE9
:102DC00032EE200A10EE101A914207DD62EE012A5F
:102DD00020EE811A82EE802AC1EE000A3EEE420AFF
:102DE00030EE600A20EE210A80ED050A30EE020A7C
:102DF00080ED070AAAE701E027E049E02CEE202A4F
:102E00006DEE200A0CEE802A4DEE800A32EE200A8A
:102E100010EE101A914207DD62EE012A20EE811AAF
:102E200082EE802AC1EE000A3EEE420A30EE600ACF
:102E300020EE210A80ED050A30EE020A80ED060A36
:102E400030EE200A80ED070A84E726EE202A67EE9E
:102E5000200A06EE802A47EE800A32EE200A10EEA3
:102E6000101A914207DD62EE012A20EE811A82EEED
:102E7000802AC1EE000A3EEE420A30EE600A20EEE1
:102E8000210A80ED070A30EE020A80ED060A21E0F1
:102E900028EE202A69EE200A08EE802A49EE800AF0
:102EA00032EE200A10EE101A914207DD62EE012A7E
:102EB00020EE811A82EE802AC1EE000A3EEE420A1E
:102EC00030EE600A20EE210A80ED060A30EE020A9A
:102ED00080ED070A30EE200A80ED050A3AE700008F
:102EE000382F0008D7B35D3FA4707D3FA4707D3FAD
:102EF000000610160006101600000000000000007A
:102F000001020304060708096F12833A3480373A36
:102F1000000000006F12833A3480373A000000004E
:102F2000A69BC43A6F12033A00000000A69BC43A65
:102F30006F12033A000000002DB25D3F000000BF99
:102F4000000000000000803F2DB25DBF0000003F88
:102F50002DB25D3F0000003F000000000000803FF8
:102F60002DB25DBF000000BF00000000000080BF68
:102F70002DB25DBF0000003F2DB25DBF000000BF5D
:102F80002DB25D3F000000BF2DB25D3F0000003F4D
:102F900000000000000080BF00000000920E493CCD
:102FA000B10AC93C2BC3163D2EFB483D752B7B3D1A
:102FB00004A9963D80B6AF3D36BDC83D2FBCE13D6E
:102FC00073B2FA3D87CF093E8340163EB5AB223E31
:102FD000A2102F3ECF6E3B3EC2C5473E0115543E68
:102FE000135C603E7F9A6C3ECCCF783EC07D823EC3
:102FF000938E883E229A8E3E32A0943E86A09A3EC0
:10300000E59AA03E128FA63ED47CAC3EEF63B23E62
:103010002A44B83E491DBE3E15EFC33E53B9C93ED2
:10302000CA7BCF3E4136D53E80E8DA3E4F92E03E45
:103030007533E63EBBCBEB3EEA5AF13ECBE0F63EC3
:10304000275DFC3EE4E7003F3D9C033F824B063F8B
:103050009BF5083F6B9A0B3FDA390E3FCDD3103FFB
:103060002A68133FD9F6153FC07F183FC6021B3FA1
:10307000D17F1D3FCBF61F3F9967223F25D2243FCA
:103080005636273F1594293F4AEB2B3FDE3B2E3F18
:10309000BB85303FC9C8323FF304353F233A373F41
:1030A0004268393F3B8F3B3FF9AE3D3F67C73F3FEB
:1030B00070D8413F01E2433F03E4453F65DE473FAF
:1030C00012D1493FF8BB4B3F029F4D3F207A4F3F03
:1030D0003D4D513F4918533F31DB543FE595563F35
:1030E0005348583F6AF2593F1A945B3F532D5D3F56
:1030F00005BE5E3F2146603F97C5613F5A3C633F36
:1031000059AA643F880F663FD86B673F3CBF683F52
:10311000A7096A3F0C4B6B3F5E836C3F93B26D3FD8
:103120009ED86E3F73F56F3F0809713F5213723F8F
:103130004714733FDD0B743F0BFA743FC6DE753FD7
:1031400007BA763FC58B773FF853783F9812793F9F
:103150009DC7793F02737A3FBE147B3FCDAC7B3F66
:10316000283B7C3FC9BF7C3FAC3A7D3FCCAB7D3F29
:1031700023137E3FB0707E3F6DC47E3F580E7F3F6D
:103180006D4E7F3FAB847F3F0FB17F3F97D37F3F33
:1031900043EC7F3F11FB7F3F0000803F11FB7F3FEF
:1031A00043EC7F3F97D37F3F0FB17F3FAB847F3F9F
:1031B0006D4E7F3F580E7F3F6DC47E3FB0707E3FA7
:1031C00023137E3FCCAB7D3FAC3A7D3FC9BF7C3FF4
:1031D000283B7C3FCDAC7B3FBE147B3F02737A3FE4
:1031E0009DC7793F9812793FF853783FC58B773F59
:1031F00007BA763FC6DE753F0BFA743FDD0B743FAE
:103200004714733F5213723F0809713F73F56F3FC4
:103210009ED86E3F93B26D3F5E836C3F0C4B6B3F0D
:10322000A7096A3F3CBF683FD86B673F880F663F7E
:1032300059AA643F5A3C633F97C5613F2146603FAE
:1032400005BE5E3F532D5D3F1A945B3F6AF2593FC6
:103250005348583FE595563F31DB543F4918533F9B
:103260003D4D513F207A4F3F029F4D3FF8BB4B3FB2
:1032700012D1493F65DE473F03E4453F01E2433F4A
:1032800070D8413F67C73F3FF9AE3D3F3B8F3B3F63
:103290004268393F233A373FF304353FC9C8323FCC
:1032A000BB85303FDE3B2E3F4AEB2B3F1594293F39
:1032B0005636273F25D2243F9967223FCBF61F3F42
:1032C000D17F1D3FC6021B3FC07F183FD9F6153F77
:1032D0002A68133FCDD3103FDA390E3F6B9A0B3F6C
:1032E0009BF5083F824B063F3D9C033FE4E7003FD0
:1032F000275DFC3ECBE0F63EEA5AF13EBBCBEB3E0F
:103300007533E63E4F92E03E80E8DA3E4136D53EE8
:10331000CA7BCF3E53B9C93E15EFC33E491DBE3EE1
:103320002A44B83EEF63B23ED47CAC3E128FA63E38
:10333000E59AA03E86A09A3E32A0943E229A8E3E06
:10334000938E883EC07D823ECCCF783E7F9A6C3E85
:10335000135C603E0115543EC2C5473ECF6E3B3EF6
:10336000A2102F3EB5AB223E8340163E87CF093ECA
:1033700073B2FA3D2FBCE13D36BDC83D80B6AF3DCE
:1033800004A9963D752B7B3D2EFB483D2BC3163D76
:10339000B10AC93C920E493C00000000920E49BCA3
:1033A000B10AC9BC2BC316BD2EFB48BD752B7BBD16
:1033B00004A996BD80B6AFBD36BDC8BD2FBCE1BD6A
:1033C00073B2FABD87CF09BE834016BEB5AB22BE2D
:1033D000A2102FBECF6E3BBEC2C547BE011554BE64
:1033E000135C60BE7F9A6CBECCCF78BEC07D82BEBF
:1033F000938E88BE229A8EBE32A094BE86A09ABEBC
:10340000E59AA0BE128FA6BED47CACBEEF63B2BE5E
:103410002A44B8BE491DBEBE15EFC3BE53B9C9BECE
:10342000CA7BCFBE4136D5BE80E8DABE4F92E0BE41
:103430007533E6BEBBCBEBBEEA5AF1BECBE0F6BEBF
:10344000275DFCBEE4E700BF3D9C03BF824B06BF87
:103450009BF508BF6B9A0BBFDA390EBFCDD310BFF7
:103460002A6813BFD9F615BFC07F18BFC6021BBF9D
:10347000D17F1DBFCBF61FBF996722BF25D224BFC6
:10348000563627BF159429BF4AEB2BBFDE3B2EBF14
:10349000BB8530BFC9C832BFF30435BF233A37BF3D
:1034A000426839BF3B8F3BBFF9AE3DBF67C73FBFE7
:1034B00070D841BF01E243BF03E445BF65DE47BFAB
:1034C00012D149BFF8BB4BBF029F4DBF207A4FBFFF
:1034D0003D4D51BF491853BF31DB54BFE59556BF31
:1034E000534858BF6AF259BF1A945BBF532D5DBF52
:1034F00005BE5EBF214660BF97C561BF5A3C63BF32
:1035000059AA64BF880F66BFD86B67BF3CBF68BF4E
:10351000A7096ABF0C4B6BBF5E836CBF93B26DBFD4
:103520009ED86EBF73F56FBF080971BF521372BF8B
:10353000471473BFDD0B74BF0BFA74BFC6DE75BFD3
:1035400007BA76BFC58B77BFF85378BF981279BF9B
:103550009DC779BF02737ABFBE147BBFCDAC7BBF62
:10356000283B7CBFC9BF7CBFAC3A7DBFCCAB7DBF25
:1035700023137EBFB0707EBF6DC47EBF580E7FBF69
:103580006D4E7FBFAB847FBF0FB17FBF97D37FBF2F
:1035900043EC7FBF11FB7FBF000080BF11FB7FBFEB
:1035A00043EC7FBF97D37FBF0FB17FBFAB847FBF9B
:1035B0006D4E7FBF580E7FBF6DC47EBFB0707EBFA3
:1035C00023137EBFCCAB7DBFAC3A7DBFC9BF7CBFF0
:1035D000283B7CBFCDAC7BBFBE147BBF02737ABFE0
:1035E0009DC779BF981279BFF85378BFC58B77BF55
:1035F00007BA76BFC6DE75BF0BFA74BFDD0B74BFAA
:10360000471473BF521372BF080971BF73F56FBFC0
:103610009ED86EBF93B26DBF5E836CBF0C4B6BBF09
:10362000A7096ABF3CBF68BFD86B67BF880F66BF7A
:1036300059AA64BF5A3C63BF97C561BF214660BFAA
:1036400005BE5EBF532D5DBF1A945BBF6AF259BFC2
:10365000534858BFE59556BF31DB54BF491853BF97
:103660003D4D51BF207A4FBF029F4DBFF8BB4BBFAE
:1036700012D149BF65DE47BF03E445BF01E243BF46
:1036800070D841BF67C73FBFF9AE3DBF3B8F3BBF5F
:10369000426839BF233A37BFF30435BFC9C832BFC8
:1036A000BB8530BFDE3B2EBF4AEB2BBF159429BF35
:1036B000563627BF25D224BF996722BFCBF61FBF3E
:1036C000D17F1DBFC6021BBFC07F18BFD9F615BF73
:1036D0002A6813BFCDD310BFDA390EBF6B9A0BBF68
:1036E0009BF508BF824B06BF3D9C03BFE4E700BFCC
:1036F000275DFCBECBE0F6BEEA5AF1BEBBCBEBBE0B
:103700007533E6BE4F92E0BE80E8DABE4136D5BEE4
:10371000CA7BCFBE53B9C9BE15EFC3BE491DBEBEDD
:103720002A44B8BEEF63B2BED47CACBE128FA6BE34
:10373000E59AA0BE86A09ABE32A094BE229A8EBE02
:10374000938E88BEC07D82BECCCF78BE7F9A6CBE81
:10375000135C60BE011554BEC2C547BECF6E3BBEF2
:10376000A2102FBEB5AB22BE834016BE87CF09BEC6
:1037700073B2FABD2FBCE1BD36BDC8BD80B6AFBDCA
:1037800004A996BD752B7BBD2EFB48BD2BC316BD72
:10379000B10AC9BC920E49BC00000080BC370008C9
:1037A0000000002024000000702A0008E037000814
:1037B000240000203C070000802A000801000000CF
:1037C00010000000000000000024F4000000C040D1
:1037D00000000000D02000000000000000000000F9
:040000050800018965
:00000001FF
